:020000040800F2
:1000000040060020D5000008DD000008DF000008E1
:1000100000000000000000000000000000000000E0
:10002000000000000000000000000000E1000008E7
:100030000000000000000000E30000087524000834
:10004000E7000008E7000008E7000008E7000008F4
:10005000E7000008E7000008E7000008E7000008E4
:10006000E7000008E7000008CD010008E7000008ED
:10007000E7000008E7000008E7000008E7000008C4
:10008000E7000008E7000008E7000008E7000008B4
:10009000E7000008E7000008E7000008E7000008A4
:1000A000E7000008E7000008E7000008E700000894
:1000B000E7000008E7000008E7000008E700000884
:1000C0000348854600F03EF8004800470543000815
:1000D000400600200448804704480047FEE7FEE74A
:1000E000FEE7FEE7FEE7FEE7F5240008C100000892
:1000F00030B50B46014600202022012409E00D46C0
:10010000D5409D4205D31D469540491B2546954047
:1001100040191546521E002DF1DC30BD70B500248B
:100120002546002801DA01244042002901DA012590
:100130004942FFF7DDFFAC4200D04042002C00D026
:10014000494270BD064C0125064E05E0E36807CC28
:100150002B430C3C98471034B442F7D3FFF7B4FF5D
:10016000E04600080047000800B587B000BF164809
:100170004069012149040843134948610846406920
:10018000012149040840019000BF00BF00BF0E4894
:100190004069490008430C4948610846406901210B
:1001A00089040840019000BF00BF06200290112082
:1001B0000390012004900020059002A90920C006A8
:1001C00000F016FA07B000BD0010024010B502485A
:1001D00000F014F810BD0000C001002010B5046844
:1001E00063604468102C04D10468A2600468E16074
:1001F00003E00468A1600468E26010BD10B5044625
:10020000C6480068C54A08322168914201D10821D8
:1002100027E0C24A1C322168914201D1802120E0AE
:10022000BE4A30322168914201D1C91419E0BB4A5B
:1002300044322168914202D10121C90311E0B74A39
:1002400058322168914202D10121C90409E0B34A20
:100250006C322168914202D10121C90501E00121DE
:10026000C906084000284ED02068006808210840D0
:10027000C008002847D020680068884321680860CB
:10028000A64908312068884201D1082027E0A34907
:100290001C312068884201D1802020E09F49303104
:1002A0002068884201D1C01419E09C49443120687B
:1002B000884202D10120C00311E0984958312068DA
:1002C000884202D10120C00409E094496C312068C1
:1002D000884202D10120C00501E00120C0068F49FB
:1002E0004860606B012108436063042121200155AF
:1002F00000BF00212020015500BF206B002802D044
:100300002046216B884785480068844A0832216866
:10031000914201D1042127E0804A1C322168914298
:1003200001D1402120E07D4A30322168914201D143
:10033000091519E0794A44322168914202D101211C
:10034000890311E0754A58322168914202D1012196
:10035000890409E0714A6C322168914202D101217D
:10036000890501E001218906084000284CD0206859
:100370000068042108408008002845D020680068F3
:1003800020210840002805D1206800680421884306
:1003900021680860614908312068884201D1042041
:1003A00027E05E491C312068884201D1402020E0CE
:1003B0005A4930312068884201D1001519E0574967
:1003C00044312068884202D10120800311E0534962
:1003D00058312068884202D10120800409E04F4949
:1003E0006C312068884202D10120800501E00120A3
:1003F00080064A494860112121200155E06A002801
:1004000002D02046E16A884744480068434A0832DF
:100410002168914201D1022127E0404A1C32216823
:10042000914201D1202120E03C4A303221689142A2
:1004300001D1491519E0394A44322168914202D16B
:100440000121490311E0354A58322168914202D115
:100450000121490409E0314A6C322168914202D1FC
:100460000121490501E0012149060840002853D037
:100470002068006802210840400800284CD020680D
:10048000006820210840002805D12068006802216A
:10049000884321680860214908312068884201D1D9
:1004A000022027E01D491C312068884201D120200C
:1004B00020E01A4930312068884201D1401519E006
:1004C000164944312068884202D10120400311E0DE
:1004D000124958312068884202D10120400409E0C5
:1004E0000E496C312068884202D10120400501E0AC
:1004F0000120400609494860606B606301212120AA
:10050000015500BF00212020015500BFA06A00282E
:1005100002D02046A16A884710BD000000000240BA
:1005200001460022002901D1012070472120405CB2
:10053000002802D1002320204354022321204354C9
:10054000086802680C4802408B6848681843CB680A
:1005500018430B6918434B6918438B691843CB69DF
:1005600018430243086802600020486301232120E9
:1005700043540020D9E700000FC0FFFFF8B5044640
:100580000D4616461F4600BF2020005D012801D100
:100590000220F8BD01212020015500BF02212120A9
:1005A00001552068006840084000216808603B460B
:1005B000324629462046FFF711FE206800680221D6
:1005C0000843216808602068006804210843216806
:1005D00008602068006808210843216808602068D6
:1005E000006801210843216808600020D1E700006D
:1005F00078B50346002200240020E3E0012696405F
:100600000D6835402C46002C7ED04D68022D02D05E
:100610004D68122D15D1D508AE001D462035A859BC
:100620005507EE0E0F25B5400646AE433046560739
:10063000F60E0D69B5402843D508AD001E4620369C
:100640007051186856000325B5400646AE43304643
:100650000D79AD07AD0F5600B540284318604D68C1
:10066000012D08D04D68022D05D04D68112D02D006
:100670004D68122D18D1986856000325B5400646DE
:10068000AE4330465600CD68B54028439860586860
:10069000012595400646AE43304610264D6835404C
:1006A0002D09954028435860D86856000325B54069
:1006B0000646AE43304656008D68B5402843D860A4
:1006C000012636074D683540B5427AD100BF404D0E
:1006D000AD69012635433E4EB5613546AD69ED073E
:1006E000ED0F009500BF00BF3A4D9608B600A8591F
:1006F00095072E0F0F25B5400646AE433046092517
:10070000ED06AB4203D100E05BE0002514E0324D82
:10071000AB4201D101250FE0304DAB4201D10225A2
:100720000AE02F4DAB4201D1032505E02D4DAB4230
:1007300001D1042500E005259607360FB540284372
:10074000244D9608B600A851274D28680546A543B4
:100750002846012636044D683540B54202D105468B
:1007600025432846204D286068680546A54328464D
:10077000012676044D683540B54202D10546254331
:100780002846194D6860A8680546A54328460126F5
:1007900036054D683540B54202D105462543284609
:1007A000114DA860E8680546A54328460126760550
:1007B0004D683540B54202D10546254328460A4DCD
:1007C000E860521C0D68D540002D00D016E778BDBA
:1007D00000100240080001400004004800080048E2
:1007E000000C00480010004800040140002A01D01D
:1007F000816100E081627047014800687047000035
:100800000000002002463520805C02280FD03520F1
:10081000805C12280BD03520805C222807D0352040
:10082000805C322803D03520805C422801D1022030
:10083000704700BF3420805C012801D10220F7E717
:1008400001233420835400BF0223352083541068D1
:1008500000684008400013681860106800680123B1
:100860001B039843136818601068006808431368F6
:10087000186010680068012318431368186001238A
:100880003520835400BF00233420835400BF002050
:10089000CEE7000010B50446002C01D1012010BDA8
:1008A0003520005D002805D1002134200155204667
:1008B00000F0A0F9022135200155206800684008A9
:1008C0004000216808600F2109066068884321689C
:1008D0000861206880680121C90388432168886015
:1008E000A06800280FD0E068012806D10121C903C3
:1008F000A06808432168886005E021218902A0687A
:10090000084321688860E068022802D180022168DB
:100910004860206840680F49084321684860616961
:1009200020690843A169090208432168C860216A57
:10093000E0690843216808602068006801210843D5
:10094000216808600020A0630121352001550020A6
:10095000A5E7000000800002FFB581B004461646FE
:100960001D4600273520005D01287DD1002E01D0D5
:10097000002D02D1012005B0F0BD20688069012161
:10098000C9030840C00B002801D00220F3E700BFD4
:100990003420005D012801D10220ECE70121342040
:1009A000015500BF2221352001550020A063FF2DF5
:1009B0000BDD0920800201231B06FF220090204648
:1009C000029901F093FBFF270AE009208002EAB2B6
:1009D00001235B0600902046029901F087FB2F4619
:1009E00000BF0022042120460A9B01F097FB00284B
:1009F00001D00320BFE72068406A3070761C7F1E5C
:100A0000681E85B2002F22D1002D20D00022802127
:100A100020460A9B01F082FB002801D00320AAE7B0
:100A2000FF2D0ADD002001231B06FF220090204637
:100A3000029901F05BFBFF2709E00020EAB20123E5
:100A40005B0600902046029901F050FB2F46002DD6
:100A5000C7DC1921204601F0B6FB002807D0A06BA7
:100A6000042802D1012086E714E0032083E7202038
:100A70002168C861206840680749084021684860CB
:100A800001213520015500BF00213420015500BF50
:100A9000002070E702206EE700E800FEFFB583B09B
:100AA000044616461D460C9F002002903520005D2E
:100AB00001287DD1002E01D0002D02D1012007B0E8
:100AC000F0BD206880690121C9030840C00B0028DF
:100AD00001D00220F3E700BF3420005D012801D1DE
:100AE0000220ECE701213420015500BF12213520FE
:100AF00001550020A063FF2D0BDD01204003C30240
:100B0000FF2200902046049901F0F0FAFF200290A5
:100B100009E001204003EAB2030300902046049953
:100B200001F0E4FA029500BF3946204601F079FB56
:100B3000002806D0A06B042801D10120BFE70320C4
:100B4000BDE7307821688862761C0298401E0290CA
:100B5000681E85B20298002823D1002D21D03B4683
:100B600000228021204601F0D9FA002801D003207C
:100B7000A5E7FF2D0BDD002001231B06FF220090BF
:100B80002046049901F0B2FAFF20029009E000200B
:100B9000EAB201235B0600902046049901F0A6FA10
:100BA0000295002DC0DC3946204601F00CFB00E028
:100BB0001BE0002806D0A06B042801D101207EE7AD
:100BC00003207CE720202168C8612068406808492C
:100BD00008402168486001213520015500BF0021EF
:100BE0003420015500BF002069E7022067E70000BC
:100BF00000E800FE10B586B004461249206888421D
:100C00001ED1032080020190122002900120039047
:100C1000032004900120059001A90B48FFF7E8FC90
:100C200000BF0A48C0690121890508430749C86116
:100C30000846C069012189050840009000BF00BF37
:100C400006B010BD005800400004004800100240EB
:100C500002480068401C01490860704700000020FD
:100C600010B50648006810210843044908600020B8
:100C700000F006F800F018F8002010BD0020024037
:100C800070B5044600F062FA06467D21C900FFF700
:100C90002FFA054600F03CFE00222146501E00F0CF
:100CA00027F8002070BD000008B500BF0948806922
:100CB000012108430749886108468069C007C00FC1
:100CC000009000BF00BF00221146501E00F010F837
:100CD00008BD00000010024000BFC206D20E012174
:100CE0009140024A116000BF7047000000E100E03F
:100CF00070B504460D4616462946204601F07EFB97
:100D000070BD0000F8B50446002500260121090445
:100D100020680840884266D15648006A03210902CB
:100D20000840032212026168114088425BD000BF74
:100D30005048C0690121090708434E49C861084667
:100D4000C06909040840009000BF00BF4A4800681D
:100D50000915084348490860FFF74EFD054606E0BF
:100D6000FFF74AFD401B642801D90320F8BD424823
:100D70000068FF21013108400028F1D03D48006A99
:100D800003210902884306463A48006A0121090402
:100D90000843384908620846006A0121090488436B
:100DA000344908620846066202203040002811D00B
:100DB000FFF722FD054607E0FFF71EFD401B2F4908
:100DC000884201D90320D1E72A48006A022108405D
:100DD0000028F1D02748006A03210902884361688E
:100DE0000843244908622078C007C00F002807D0B4
:100DF0002048006B80088000A16808431D490863F3
:100E0000022120680840022808D11A48006B0321FB
:100E100009048843E16808431649086320212068D3
:100E20000840202807D11348006B1021884321690E
:100E3000084310490863012149042068084088429A
:100E400007D10C48006B80218843A16908430949F8
:100E500008630121890220680840884207D10548BB
:100E6000006B402188436169084302490863002000
:100E70007CE7000000100240007000408813000072
:100E800070B504460E460025AD480068C007C00F87
:100E9000B0426ED2AA480068400840003043A849DA
:100EA000086008460068C007C00FB04201D00120AA
:100EB00070BD022120680840022807D1A14840687F
:100EC000F0218843A16808439E4948602078C00704
:100ED000C00F002848D06068012808D199480068F0
:100EE000012149040840002821D10120E0E7606881
:100EF000022808D1934800680121490608400028CB
:100F000015D10120D4E76068032808D18D48406BD3
:100F1000012109040840002809D10120C8E78948B7
:100F2000006802210840002801D10120C0E785485F
:100F30004068800880006168084382494860FFF784
:100F40005BFC0546606801280FD107E0FFF754FC01
:100F5000401B7D49884201D90320A9E779484068B0
:100F60000C2108400428F1D1D6E06068022810D195
:100F700008E031E0FFF740FC401B7349884201D98B
:100F8000032095E76F4840680C2108400828F1D1FC
:100F9000C2E0606803280FD107E0FFF72DFC401B7B
:100FA0006949884201D9032082E7664840680C21DC
:100FB00008400C28F1D1AFE007E0FFF71DFC401B13
:100FC0006149884201D9032072E75E4840680C21DC
:100FD00008400028F1D19FE0022120680840022843
:100FE00007D158484068F0218843A1680843554913
:100FF00048602078C007C00F00287ED060680128B4
:1010000008D150480068012149040840002821D136
:1010100001204DE76068022808D14A480068012194
:1010200049060840002815D1012041E760680328DF
:1010300008D14448406B012109040840002809D127
:10104000012035E73F48006802210840002801D10F
:1010500001202DE73B484068800880006168084314
:1010600038494860FFF7C8FB0546606801280FD182
:1010700007E0FFF7C1FB401B3349884201D9032039
:1010800016E7304840680C2108400428F1D134E0CC
:10109000606802280FD107E0FFF7AEFB401B2A492A
:1010A000884201D9032003E7264840680C21084004
:1010B0000828F1D121E0606803280FD107E0FFF78D
:1010C0009BFB401B2049884201D90320F0E61D48C4
:1010D00040680C2108400C28F1D10EE007E0FFF732
:1010E0008BFB401B1849884201D90320E0E61548D4
:1010F00040680C2108400028F1D1114800684008E0
:10110000400030430E49086008460068C007C00F21
:10111000B04201D00120CBE6042120680840042819
:1011200008D108484068072109028843E16808435C
:10113000044948600020FFF7A3FD0020B8E6000046
:1011400000200240001002408813000010B500F09B
:1011500025F806494968F02211400909044A515C02
:10116000C840044908600846006810BD00100240ED
:101170008C4500081400002010B5FFF7E7FF054973
:101180004968072212021140090A034A515CC8400B
:1011900010BD0000001002408C450008F0B589B079
:1011A0002FA001460EC9C06805AC0EC4089030A03F
:1011B00001460EC9C06801AC0EC40490002400268C
:1011C00000270025002000902D4844680C20204076
:1011D00000283DD0042804D0082805D00C2836D19A
:1011E00032E02848009036E00F2080042040800C38
:1011F00005A90D5C2248C06A0007000F01A90E5C1A
:101200000320C003204001210904884206D1314651
:101210001C48FEF76DFF6843074613E00320C00338
:1012200020400321C903884206D131461648FEF703
:101230005FFF6843074605E031461248FEF758FF56
:1012400068430746009706E00F48009003E000BFA0
:101250000C48009000BF00BF009809B0F0BD00002E
:1012600002030405060708090A0B0C0D0E0F1010E7
:101270000102030405060708090A0B0C0D0E0F10E6
:101280000010024000127A00006CDC0238B50446FF
:1012900000252078C007C00F00286FD0FE484068A6
:1012A0000C21084004280CD0FB484068084008285E
:1012B00013D1F948406849030840012109048842D4
:1012C0000BD1F54800680121490408400028E4D00A
:1012D0006068002852D1012038BD00BFEE48006888
:1012E000012109048843EC4908600846006801218F
:1012F00089048843E849086000BFFFF77DFA054686
:1013000006E0FFF779FA401B642801D90320E3E7E0
:10131000E14800680121490408400028F1D100BFDC
:101320006068012806D1DC48006849100843DA49A2
:10133000086032E0606800280ED1D74800680121BB
:1013400009048843D44908600846006801218904DB
:101350008843D149086020E0606805280FD1CE4855
:101360000068012189040843CB49086008460068E9
:10137000012109040843C84908600EE036E0C64868
:101380000068012109048843C349086008460068D1
:10139000012189048843C049086000BF60680028B3
:1013A00012D0FFF729FA054606E0FFF725FA401BA1
:1013B000642801D903208FE7B74800680121490458
:1013C00008400028F1D011E0FFF716FA054606E0C4
:1013D000FFF712FA401B642801D903207CE7AE48CE
:1013E00000680121490408400028F1D10221206849
:1013F0000840022862D1A84840680C210840002813
:101400000CD0A5484068084008281CD1A248406874
:10141000490308400121C903884214D19E4800684D
:1014200002210840002804D0E068012801D00120F2
:1014300052E799480068F82188432169C9000843A8
:10144000954908603AE0E068002820D0924800689A
:101450000121084390490860FFF7CEF9054606E0F0
:10146000FFF7CAF9401B642801D9032034E78A48F2
:101470000068022108400028F2D087480068F8215F
:1014800088432169C90008438349086016E08248FF
:1014900000684008400080490860FFF7ADF9054644
:1014A00006E0FFF7A9F9401B642801D9032013E7E0
:1014B00079480068022108400028F2D108212068FC
:1014C0000840082831D1206A002817D07248406AA5
:1014D0000121084370494862FFF78EF9054606E08E
:1014E000FFF78AF9401B642801D90320F4E66A4813
:1014F000406A022108400028F2D016E06648406A9F
:101500004008400064494862FFF776F9054606E066
:10151000FFF772F9401B642801D90320DCE65E481E
:10152000406A022108400028F2D1042120680840C6
:10153000042870D100BF5848C0698906084356493D
:10154000C8610846C06909040840009000BF00BF98
:10155000524800680915084350490860FFF74CF9E4
:10156000054606E0FFF748F9401B642801D903202F
:10157000B2E64A480068FF21013108400028F1D056
:1015800000BF4548006A40084000434908620846D9
:10159000006A042188434049086200BFFFF72CF924
:1015A000054607E0FFF728F9401B3D49884201D96D
:1015B000032091E63848006A022108400028F1D152
:1015C00000BFA068012806D13348006A0121084302
:1015D000314908622CE0A06800280CD12E48006A2E
:1015E000400840002C4908620846006A04218843EC
:1015F000294908621CE0A06805280DD12648006A28
:1016000004210843244908620846006A012108436E
:10161000214908620CE034E01F48006A400840009D
:101620001D4908620846006A042188431A49086275
:1016300000BFA068002812D0FFF7DEF8054607E0DB
:10164000FFF7DAF8401B1649884201D9032043E628
:101650001148006A022108400028F1D011E0FFF78C
:10166000CBF8054607E0FFF7C7F8401B0C49884256
:1016700001D9032030E60848006A0221084000280A
:10168000F1D1102120680840102860D1606901283C
:101690002DD10148406B05E0001002400070004071
:1016A00088130000042108438E4948630846406BB4
:1016B000012108438B494863FFF79EF8054606E081
:1016C000FFF79AF8401B642801D9032004E68548F7
:1016D000406B022108400028F2D08248406BF8217C
:1016E0008843A169C90008437E4948632FE06069C7
:1016F000401D00280FD17B48406B04218843794965
:1017000048630846406BF8218843A169C900084333
:10171000744948631BE07348406B042108437149D6
:1017200048630846406B400840004863FFF764F890
:10173000054606E0FFF760F8401B642801D9032046
:10174000CAE56848406B022108400028F2D12021F8
:1017500020680840202852D1624840680C21084087
:101760000C280AD05F4840680840082811D15D481D
:1017700040684903084088420BD15A48406B012118
:101780000904084000283AD0E069012837D0012038
:10179000A2E5E069002819D05248406B01210904F4
:1017A000084350494863FFF727F8054606E0FFF76E
:1017B00023F8401B642801D903208DE54948406B7C
:1017C0000121090408400028F1D018E04548406B89
:1017D00001210904884343494863FFF70DF8054692
:1017E00006E0FFF709F8401B642801D9032073E5E0
:1017F0003C48406B0121090408400028F1D1606A8F
:1018000000286CD0374840680C210840082864D074
:10181000606A022847D133480068012109068843DD
:1018200030490860FEF7E8FF054606E0FEF7E4FFF2
:10183000401B642801D903204EE52A480068012195
:10184000490608400028F1D100BF2648C06A0009B7
:101850000001216B08432349C862A16AE06A08437A
:10186000204949687B22D203914308431D494860BF
:1018700000BF0846006801210906084319490860AD
:10188000FEF7BAFF054606E0FEF7B6FF401B6428E8
:1018900001D9032020E513480068012149060840CA
:1018A0000028F1D01BE00F48006801210906884399
:1018B0000C490860FEF7A0FF054606E0FEF79CFF16
:1018C000401B642801D9032006E506480068012171
:1018D000490608400028F1D101E00120FCE4002085
:1018E000FAE4000000100240042806D10649096904
:1018F00004221143044A116105E0034909690422E5
:101900009143014A1161704700E000E07047000018
:1019100070B504462546681E0949884201D9012050
:101920000CE0681E074948610321081F00F066FDAE
:1019300000200449886107200861002070BD000074
:10194000FFFFFF0000E000E010B5FFF7DFFF10BD74
:10195000024600BF3820805C012801D10220704778
:1019600001233820835400BF022339208354106898
:1019700040687023984313685860106840680B688B
:101980001843136858601068806880239843136870
:101990009860106880684B6818431368986001234A
:1019A0003920835400BF00233820835400BF002017
:1019B000D5E710B50446002C01D1012010BD392017
:1019C000005D002805D1002138200155204600F097
:1019D0000DF8022139200155211D206800F0C6FDB7
:1019E0000121392001550020E8E7000010B586B03C
:1019F00004461149206888421BD100BF0F48C069C6
:101A0000022108430D49C8610846C0690221084007
:101A1000009000BF00BF0120019002200290002032
:101A20000390032004900120059001A90448FEF7CB
:101A3000DFFD06B010BD00000004004000100240B1
:101A40000004004801460222392042540868006818
:101A5000012210430A6810600122392042540020FC
:101A60007047F8B504460D46002600BF3820005DDB
:101A7000012801D10220F8BD01213820015500BF05
:101A80000221392001552068866877213046884335
:101A90000646FF21090230468843064620688660D4
:101AA000286850283ED00CDC202863D004DC0028B5
:101AB00056D0102868D158E0302860D0402863D133
:101AC00044E0602838D070280DD001210903401A65
:101AD00002D0401A58D117E020688068C008C000C2
:101AE0002168886051E0EB686A68A968206800F0A6
:101AF0009DFD20688668772130468843064677201A
:101B000006432068866040E0EB686A68A968206840
:101B100000F08CFD2068806801218903084321685A
:101B2000886032E0EA686968206800F0FFFE5021B2
:101B3000206800F08AFD28E0EA686968206800F003
:101B400010FF6021206800F080FD1EE0EA686968EF
:101B5000206800F0EBFE4021206800F076FD14E0E4
:101B60000021206800F071FD0FE01021206800F0D6
:101B70006CFD0AE02021206800F067FD05E03021BF
:101B8000206800F062FD00E000BF00BF01213920A5
:101B9000015500BF00213820015500BF00206AE731
:101BA00070B504460D46164600BF3820005D01287A
:101BB00001D1022070BD01213820015500BF022152
:101BC00039200155002E06D0042E1BD0082E33D00C
:101BD0000C2E62D147E02946206800F043FD2068C2
:101BE0008069082108432168886120688069042190
:101BF00088432168886120688069296908432168D1
:101C000088614BE02946206800F086FD20688069E5
:101C10000121C90208432168886120688069012187
:101C200089028843216888612068806929690902DE
:101C300008432168886131E02946206800F0D0FD22
:101C40002068C069082108432168C8612068C0690C
:101C5000042188432168C8612068C0692969084354
:101C60002168C8611AE02946206800F01BFE206840
:101C7000C0690121C90208432168C8612068C069A0
:101C80000121890288432168C8612068C0692969E7
:101C9000090208432168C86100E000BF00BF0121BC
:101CA0003920015500BF00213820015500BF002018
:101CB00080E710B50446002C01D1012010BD392069
:101CC000005D002805D1002138200155204600F094
:101CD0000CF8022139200155211D206800F046FC36
:101CE0000121392001550020E8E7704730B504464E
:101CF0000D4601222946206800F08AFC114920681F
:101D000088420BD010492068884207D00F492068CC
:101D1000884203D00E492068884201D1012000E0AA
:101D20000020002806D02068406C0121C903084328
:101D30002168486420680068012108432168086020
:101D4000002030BD002C0140004001400044014013
:101D500000480140704710B50446002C01D1012015
:101D600010BDA069002800D000E000BF6920005D20
:101D7000002805D1002168200155204600F02CF8EC
:101D80000221692001552068006840084000216850
:101D90000860204600F0ECFE012800D1E0E7606A10
:101DA000002802D0204600F0F7FD20684068092195
:101DB000C902884321684860206880682A218843D6
:101DC0002168886020680068012108432168086054
:101DD000204600F059FEC3E710B586B004462449FA
:101DE0002068884242D100BF2248806901218903CE
:101DF0000843204988610846806901218903084019
:101E0000009000BF00BF0811019002200290012045
:101E10000390032004900120059001A90920C00629
:101E2000FEF7E6FB40200190022002900120039083
:101E3000032004900020059001A90F48FEF7D8FB6D
:101E40000E480F4908601020486000210C4881604E
:101E50008021C1600021016141618161C161FEF7A2
:101E60005FFB00BF06482066446200BF06B010BD9D
:101E70000038014000100240000400481C000240ED
:101E8000C0010020FFB581B004460D46164669200A
:101E9000005D012803D06920005D222867D1002D54
:101EA00001D0002E02D1012005B0F0BD00BF682096
:101EB000005D012801D10220F6E7012168200155CB
:101EC00000BF0020E0666920005D222803D1322196
:101ED0006920015502E01221692001555020065366
:101EE0005220065323E05220005B401E81B2522054
:101EF0000153002280212046049B00F03FFF002870
:101F000001D00320D0E701210903A06888420AD14B
:101F10002069002807D12F463888C005C00D2168E8
:101F20000885AD1C03E028786D1C216808855220C7
:101F3000005B0028D7DC002240212046049B00F0F3
:101F40001DFF002801D00320AEE76920005D322884
:101F500003D122216920015502E0012169200155A8
:101F600000BF00216820015500BF00209CE702202F
:101F70009AE70000F7B5044615466920005D012880
:101F800003D06920005D222846D10198002801D0A5
:101F9000002D01D10120FEBD00BF6820005D012899
:101FA00001D10220F7E701216820015500BF019807
:101FB000E06450200553522005530020E06669205C
:101FC000005D222803D132216920015502E012214F
:101FD000692001551148216E88621148216EC8623E
:101FE0001048216E086301AE23681A462832316812
:101FF0002B46206EFEF7C2FA402021680862206856
:102000008068802108432168886000BF0021682023
:10201000015500BF0020BEE70220BCE7272B0008C7
:10202000612B0008012B00087047704770B504460B
:102030000D460026FEF7E0FB064620688069102169
:102040000840000900284CD03520005D122807D038
:102050003520005D522803D03520005D62280CD168
:1020600020684068012149060840884205D0206860
:102070004068C91208432168486013E0681C0028C2
:1020800010D0002D04D0FEF7B7FB801BA84209D961
:1020900001213520015500BF00213420015500BF2A
:1020A000032070BD20688069202108404009002875
:1020B000E4D010202168C86120202168C861206810
:1020C000406809490840216848600420A063012154
:1020D0003520015500BF00213420015500BF0120EB
:1020E000DFE70020DDE7000000E800FEF0B50C4669
:1020F000002105686968084D2940A505AD0D160445
:10210000FF273F043E4035431D43059E3543294389
:1021100005686960F0BD0000009800FCFFB581B063
:1021200004460E461D46FEF767FB07460398002847
:1021300024D114E0681C002811D0002D04D0FEF733
:102140005BFBC01BA8420AD901213520015500BF05
:1021500000213420015500BF032005B0F0BD2068E8
:102160008069F103C90B0840F103C90B884201D112
:10217000012000E000200028DCD022E013E0681CF1
:10218000002810D0002D04D0FEF736FBC01BA8425B
:1021900009D901213520015500BF00213420015506
:1021A00000BF0320D9E720688069F103C90B08400C
:1021B000F103C90B884201D1012000E00020002872
:1021C000DDD10020C9E770B504460D460026FEF7B4
:1021D00013FB06461CE029462046FFF727FF002890
:1021E00001D0012070BD002D04D0FEF705FB801B3F
:1021F000A8420DD9A06B20210843A06301213520FE
:10220000015500BF00213420015500BF0320E9E73C
:10221000206880692021084040090028DBD0002088
:10222000E0E770B504460D46FEF7E6FA06461FE005
:1022300029462046FFF7FAFE002801D0012070BD94
:10224000681C002814D0002D04D0FEF7D5FA801B9E
:10225000A8420DD9A06B20210843A063012135209D
:10226000015500BF00213420015500BF0320E6E7DF
:10227000206880690221084040080028D8D000204A
:10228000DDE7000008B500BF0A48406901210843A6
:102290000849486108464069C007C00F009000BF68
:1022A00000BF002211460A20FEF722FD0A20FEF799
:1022B00013FD08BD0010024000B587B000BF1648EE
:1022C00040690121490408431349486108464069AF
:1022D000012149040840019000BF00BF00BF0E4823
:1022E0004069490008430C4948610846406901219A
:1022F00089040840019000BF00BF06200290112011
:10230000039000200490059002A90920C006FEF762
:102310006FF907B000BD00000010024010B50B4877
:102320000B4908600B484860002109488160012181
:10233000C1600021016141618161C1610162FEF7FB
:10234000A9FA00210248FEF75DFA10BD00580040CE
:10235000D8000020FEB0A00000B58DB01548164989
:102360000860002048600021134881601349C16063
:1023700000210161FFF71DFB01200003099009A95D
:102380000D48FFF76EFB0C48FFF793FC0020079009
:10239000089007A90848FFF7DBFA602000900020AA
:1023A000019002900490082269460348FFF7F8FB69
:1023B0000DB000BD0004004014010020FFFF00002C
:1023C00010B50C480C490860E1204002486000212B
:1023D00009488160C16001610C2141610021816176
:1023E000C16101620020044948620846FFF7B3FC5E
:1023F00010BD0000003801405001002010B5002839
:1024000019DA1A4A03071B0F083B9B089B00D25896
:102410008307DC0EFF23A3409A438B071B0E840720
:10242000E40EA3401A43114B0407240F083CA408F0
:10243000A4001A5118E00E4A03231B02D218830885
:102440009B00D2588307DC0EFF23A3409A438B07DF
:102450001B0E8407E40EA3401A43054B03242402F9
:102460001B198408A4001A5110BD00001CED00E0E7
:1024700000E100E010B5FEF7EBFBFFF765FA10BDD9
:1024800030B599B002200C9001200F9010201090D0
:1024900002201590810316910921890417910121C9
:1024A00018910CA8FEF7F2FE012008900220099076
:1024B00000200A900B90012108A8FEF7E1FC012002
:1024C00001900020039001A8FEF71CFCFEF73EFEE1
:1024D00005467D21C900FDF70BFE0446FFF718FAFB
:1024E0000420FFF701FA00221146501EFEF700FCFF
:1024F00019B030BD19480068012108431749086028
:102500000846406816490840144948600846006873
:1025100014490840114908600846006801218904EF
:1025200088430E490860084640683F2109048843F3
:102530000A4948600846C06A00090001C8620846A6
:10254000006B09490840054908630846406B40088C
:10255000400048630020886070470000001002407F
:102560000CB8FF08FFFFF6FE2CFEFCFF10B50022A2
:102570000268214B984206D001239B07984202D063
:102580001E4B984205D170241346A3431A464B684C
:102590001A43194B984212D001239B0798420ED040
:1025A000164B98420BD0164B984208D0154B9842C8
:1025B00005D0154B984202D0144B984206D1032403
:1025C00024021346A3431A46CB681A4302608B6861
:1025D000C3620B688362084B984208D0094B98424B
:1025E00005D0094B984202D0084B984201D10B69A3
:1025F00003630123436110BD002C0140000400402F
:1026000000200040004001400044014000480140DB
:1026100030B5002301248C402346046A9C430462A5
:10262000046A15468D402C43046230BD70B50C46DB
:1026300000218168FF2636020D46B54329461D025A
:10264000154325432943816070BD10B50A4600211A
:10265000816870240B46A34319460723134319438B
:10266000816010BD70B5002400220023056A6D084A
:102670006D000562026A4368846970262546B54389
:102680002C46A408A4000D682C4302261546B54329
:102690002A468D682A431C4DA84200D10BE01B4DF1
:1026A000A84200D107E01A4DA84200D103E0194D1D
:1026B000A8420AD100BF08261546B5432A46CD6870
:1026C0002A4304261546B5432A460F4DA84208D092
:1026D0000E4DA84205D00E4DA84202D00D4DA84285
:1026E0000CD1FF2601361D46B5432B4676001D460C
:1026F000B5432B464D692B438D692B434360846161
:102700004D684563026270BD002C014000400140ED
:10271000004401400048014070B50024002200231D
:10272000056A1026B5430562026A43688469072674
:1027300036032546B5432C46032636022546B543C7
:102740002C460D682D022C4320261546B5432A46FB
:102750008D682D012A431E4DA84200D10BE01D4D6E
:10276000A84200D100BF1C4DA84200D100BF1B4DA4
:10277000A8420BD10AE080261546B5432A46CD680B
:102780002D012A4340261546B5432A46104DA8423E
:1027900008D0104DA84205D00F4DA84202D00F4DD1
:1027A000A8420ED10126B6021D46B5432B4676003F
:1027B0001D46B5432B464D69AD002B438D69AD00D9
:1027C0002B43436084614D688563026270BD0000E5
:1027D000002C0140004001400044014000480140FD
:1027E00070B5002400220023056AFF260136B54398
:1027F0000562026A4368C46970262546B5432C46C3
:10280000A408A4000D682C43012676021546B543A2
:102810002A468D682D022A431E4DA84200D10BE0A6
:102820001D4DA84200D100BF1C4DA84200D100BFE1
:102830001B4DA8420CD10BE00126F6021546B5430C
:102840002A46CD682D022A4376101546B5432A46FE
:10285000104DA84208D0104DA84205D00F4DA842F7
:1028600002D00F4DA8420ED1012636031D46B543B6
:102870002B4676001D46B5432B464D692D012B4353
:102880008D692D012B434360C4614D68C5630262AD
:1028900070BD0000002C0140004001400044014098
:1028A0000048014070B5002200230024056A01267B
:1028B0003603B5430562036A4468C26907263603D6
:1028C0001546B5432A46032636021546B5432A4621
:1028D0000D682D022A43012676031D46B5432B467B
:1028E0008D682D032B430D4DA84208D00C4DA842F6
:1028F00005D00C4DA84202D00B4DA84207D10126AD
:10290000B6032546B5432C464D69AD012C434460C2
:10291000C2614D680564036270BD0000002C014077
:1029200000400140004401400048014070B50B46A2
:10293000144600210022026A056A6D086D000562D6
:102940008169F0260D46B5432946250129430A260B
:102950001546B5432A4615461D432A468161026243
:1029600070BD70B50B46144600210022056A102682
:10297000B54305628169026A0F2636030D46B543E9
:10298000294625032943A0261546B5432A461D019D
:102990002A438161026270BD818CC907C90F002979
:1029A00008D001684968012252049143826A1143A8
:1029B000026851600222416A1140002907D0016873
:1029C0004968D2039143C26A1143026851600422EC
:1029D000416A1140002907D00168496812049143F7
:1029E000026B1143026851600822416A11400029BC
:1029F00007D00168496812039143426B1143026892
:102A000051601022416A1140002907D0016889688D
:102A100012029143826B1143026891602022416A45
:102A20001140002907D00168896812029143C26BE6
:102A30001143026891604022416A1140002915D07B
:102A40000168496892039143026C11430268516026
:102A500001221205016C914208D1016849680322E4
:102A600052059143426C1143026851608022416AD1
:102A70001140002907D00168496812039143826C14
:102A8000114302685160704710B504460020E066AB
:102A900019492068884203D018492068884221D10A
:102AA000206800680821084008280AD17D23DB003F
:102AB00000228104204600F061F9002801D00320A3
:102AC00010BD206800680421084004280AD17D2335
:102AD000DB0000220105204600F050F9002801D05B
:102AE0000320EDE701216920015500BF0021682086
:102AF000015500BF0020E3E70038014000440040DA
:102B000070B505466C6A00215A20015352200153CA
:102B1000012169200155E06E10210843E06620463E
:102B2000FFF718F970BD70B505466C6A2868006833
:102B30002021084000280FD1002152200153206895
:102B4000806880218843216888602068006840216F
:102B500008432168086002E02046FFF765FA70BD6F
:102B600070B50446656A2846FFF75FFA70BD00003D
:102B7000FEB5044600251026002700200290019093
:102B80002169A068084361690843E1690843054673
:102B90002068006870490840284321680860206860
:102BA0004068032109038843E168084321684860BD
:102BB000216AA06908430546206880680B21090244
:102BC000884328432168886000BF644920688842A0
:102BD00017D16348006B8007800F002806D00128BA
:102BE00008D0022808D0032808D101E0002607E019
:102BF000022605E0042603E0082601E0102600BFB7
:102C00002BE05849206888421AD15548006B0321AF
:102C100009040840002808D001210904401A08D0FE
:102C2000401A08D0401A08D101E0002607E0022629
:102C300005E0042603E0082601E0102600BF0CE0B2
:102C400049492068884201D1002606E047492068AA
:102C5000884201D1002600E0102600BF0121C903EF
:102C6000E06988423FD1042E1BD004DC002E07D03F
:102C7000022E28D10EE0082E1DD0102E23D123E0E5
:102C8000FEF77AFA400000906168FDF731FA80B2F1
:102C900002901CE036486168FDF72AFA80B2029083
:102CA00015E0FEF77BFA400000906168FDF720FA1E
:102CB00080B202900BE0012000046168FDF718FA71
:102CC00080B2029003E000BF0120019000BF00BF6E
:102CD000284902980840074602980007400F07431A
:102CE0002068C76035E0042E1CD004DC002E07D01D
:102CF000022E29D10EE0082E1ED0102E24D124E061
:102D0000FEF73AFA00906168FDF7F2F980B22168A7
:102D1000C8601DE018486168FDF7EAF980B22168D3
:102D2000C86015E0FEF73AFA00906168FDF7E0F937
:102D300080B22168C8600BE00120C0036168FDF724
:102D4000D7F92168C86003E000BF0120019000BFEF
:102D500000BF0198FEBD0000F369FFEF003801409D
:102D6000001002400044004000480040004C004079
:102D70000024F400F0FF000000127A00FFB581B0DB
:102D800004460E461D46FDF737FD0746039800280A
:102D900039D12DE0681C00282AD0002D04D0FDF781
:102DA0002BFDC01BA84223D92068006880218843DE
:102DB0002168086020680068202188432168086035
:102DC00020680068FF21013188432168086020687D
:102DD0008068400840002168886001216920015511
:102DE00000BF00216820015500BF032005B0F0BDE1
:102DF0002068C0693040B04201D1012000E00020CD
:102E00000028C7D037E02CE0681C002829D0002D0E
:102E100004D0FDF7F1FCC01BA84222D9206800684D
:102E20008021884321680860206800682021884349
:102E30002168086020680068FF210131884321680B
:102E4000086020688068400840002168886001218F
:102E50006920015500BF00216820015500BF0320F3
:102E6000C4E72068C0693040B04201D1012000E0D1
:102E700000200028C8D10020B8E770B506460C46EF
:102E8000072C06DC22461521304600F0A0FC054642
:102E900001E00125ED43284670BD000070B50646EF
:102EA0000C4606480472002C04D0304600F0F4FCB6
:102EB000054600E00025284670BD0000CC0000203B
:102EC00070B504460D4600222946204600F0BEFAA1
:102ED0000646304670BD0000F8B504460D4616465D
:102EE000074833462A46214600900648FDF734FD40
:102EF0000746002F00D1F8BD0020C043FBE70000CB
:102F0000204E0000D8000020F8B504460D461646B5
:102F1000074833462A46214600900648FDF7BEFD85
:102F20000746002F00D1F8BD0020C043FBE700009A
:102F3000204E0000D8000020F0B585B0074655208F
:102F400033490881642048810120087301213048F9
:102F500060300172384600F03BFD00BF03AA242117
:102F6000384600F0FEF90446002C02D000BF00BF36
:102F700049E068460C21415625486030417201AA5B
:102F80002621384600F00AFA0446002C02D000BF81
:102F900000BF38E00198000C0004002801D11D4852
:102FA00001901B49019808606A461E21384600F0CE
:102FB0001BFA0446002C02D000BF00BF23E0684685
:102FC00000887D21C9004843C6091148466038463B
:102FD00000F062FC0546002D02DA00BF00BF12E0DF
:102FE00002AA1621384600F0BCF90446002C02D093
:102FF00000BF00BF07E06846007A012801D1002D1C
:1030000000D0012400BF00BF204605B0F0BD000085
:103010006C000020F803CE00704770B5054600BF75
:10302000284600F063FA0446002C00DA1BE0042175
:10303000284600F01BF80446002C00D013E0C822FC
:103040000A21284600F066F90446002C02D000BF91
:1030500000BF08E0284600F0FBFD07212846FFF7E7
:103060000CFF044600BF00BF204670BD70B5064689
:103070000C46042C07DC2346F8221421304600F0CD
:1030800053FA054603E000BF00BF0125ED43284683
:1030900070BDF8B505460C466A464F21284600F03B
:1030A00060F9064668460078C7210840207030461F
:1030B000F8BD00007CB506460C462146304600F0BF
:1030C0004BF80546002D40D101AA6621304600F09C
:1030D0008BF90546002D36D16846808860606A46C7
:1030E0004D21304600F03DF90546002D04D16846DB
:1030F00000780011A06001E000BF00BF214630460B
:1031000000F0E2FC0546002D00D021E01148007BD4
:1031100000280ED02146304600F069FD0546002DFE
:1031200007D1218C2068884203D01020A060208C19
:10313000206008486030007A002808D021463046D8
:1031400000F082FB03E000BF01E000BF00BF00BF52
:1031500028467CBD6C000020F8B507460C466A4640
:103160006221384600F0FDF80546002D04D1032603
:1031700068460078704320602846F8BDF8B50646DA
:103180000F4601213046FFF778FE0446002C02D09E
:1031900000BF00BF3BE00121304600F0CFF80446FD
:1031A000002C02D000BF00BF31E01AE06946304673
:1031B000FFF76FFF0446002C00D013E000980006D4
:1031C000800F002804D000BF00BF0324E44309E0BF
:1031D00000984007400F042800D103E03046FFF775
:1031E0001BFFE3E700BF002C04D139463046FFF750
:1031F00061FF044601213046FFF73FFE0546002DE2
:1032000004D000BF00BF002C00D12C4600BF2046D8
:10321000F8BD0000F1B588B07D20C00007904010D7
:10322000069024480089059022484089049000BFF8
:1032300002AA1C21089800F094F80446002C02D041
:1032400000BF00BF32E06846007A0190089800F0A5
:10325000FFFB0546002D02DA0024E44326E07D2131
:10326000C90001984843461B03AAB821089800F0FA
:1032700095F80446002C02D000BF00BF16E003986A
:1032800000020390049A72431146FF23F533059A16
:103290005A43039B5A431046FCF72AFF0746BAB22B
:1032A0002221089800F0BDFA044600BF00BF204666
:1032B00009B0F0BD6C000020F8B507460D46002DA2
:1032C00001D0012400E000242346FE222D213846AF
:1032D00000F02AF906463046F8BD70B506460D46A0
:1032E000002400BF2A461C21304600F070FA044634
:1032F000002C00D00BE03046FFF78CFF0446002C7A
:1033000000D004E0304600F0C7FA044600BF00BF1A
:10331000204670BDF8B506460C4617463A461921B8
:10332000304600F054FA0546002D05D122461A21F8
:10333000304600F04CFA05462846F8BD70B5064602
:103340000D46032D09DC2A461821304600F03FFACD
:103350000446002C03D000BF01E00124E4432046D2
:1033600070BDF7B582B00D4617466C462812207026
:103370006570022221460298FFF7C6FD0646002E20
:1033800009D1012221460298FFF7A6FD0646002E2C
:1033900001D120783870304605B0F0BDF7B582B065
:1033A0000D4617466C462812207065700222214691
:1033B0000298FFF7A9FD0646002E12D104222146ED
:1033C0000298FFF789FD0646002E0AD120780006F4
:1033D000617809040843A17809020843E1780843A9
:1033E0003860304605B0F0BDF7B582B00D461746DF
:1033F0006C46281220706570022221460298FFF761
:1034000083FD0646002E0CD1022221460298FFF7CA
:1034100063FD0646002E04D120780002617808433F
:103420003880304605B0F0BD70B505460C46522DCB
:1034300005D1224604218006FDF7D8F905E0224691
:1034400002210920C006FDF7D1F970BDF7B50C4681
:103450001546002C01D0012C15D1082D01D0002DCE
:1034600011D1002C01D1102700E011276806030EAE
:10347000E1223946009800F057F80646002E01D0A8
:1034800000BF00BF03E000BF00BF0126F643304687
:10349000FEBD0000F8B507460C462646E00F801931
:1034A000C005020E0549384600F091F90546002D89
:1034B00001D000BF00BF2846F8BD00001202000086
:1034C000024600200121890700E089089142FCD8CA
:1034D00009E04318934204D84318D21A43085818F5
:1034E00000E0400889080029F3D1704770B506460E
:1034F0000025304600F034F90446002C02DA00BF03
:1035000000BF0FE0002C01DD00BF00BF00BF00BF07
:10351000002D01DA00BF00BF002D02D1002C00D029
:10352000254600BF284670BDFFB583B00D4617463F
:1035300001AC281220706570022221460398FFF723
:10354000E3FC0646002E12D10122A11C0398FFF7CE
:10355000C3FC0646002E0AD1A078384006990843DD
:10356000A070032221460398FFF7CEFC06463046A2
:1035700007B0F0BD10B5044601226549204600F0B1
:1035800026F901224121C900204600F020F900223D
:103590009621204600F01BF954229721204600F086
:1035A00016F90022E321204600F011F90422E4215B
:1035B000204600F00CF90222E521204600F007F930
:1035C0000122E621204600F002F90322E7212046ED
:1035D00000F0FDF80222F521204600F0F8F805225F
:1035E000D921204600F0F3F8204600F0E1FA00224D
:1035F0009F21204600F0EBF82822A321204600F06E
:10360000E6F80022B721204600F0E1F82822BB218D
:10361000204600F0DCF80922B221204600F0D7F85D
:103620000922CA21204600F0D2F80122FF21993157
:10363000204600F0CCF81722FF21B131204600F0DF
:10364000C6F80022FF21AE31204600F0C0F8052266
:10365000FF21204600F0BBF80522FF210131204662
:1036600000F0B5F80522FF219A31204600F0AFF8AE
:103670001B22FF21A731204600F0A9F83E22FF219E
:10368000AD31204600F0A3F81F22FF21A8312046CB
:1036900000F09DF800223021204600F098F810221A
:1036A0001121204600F093F83022FF210B312046F3
:1036B00000F08DF846223F21204600F088F8FF22D6
:1036C0003121204600F083F863224021204600F09B
:1036D0007EF801222E21204600F079F8FF222C21CD
:1036E000204600F074F809221B21204600F06FF8F4
:1036F00031223E21204600F06AF82422142120467F
:1037000000F065F83F212046FFF7E7FD002010BDDF
:1037100007020000F3B581B00C46032C18DB17DC60
:10372000601E40000C490E5A32469621019800F066
:1037300078F805460949092008562146FCF7EEFCB1
:1037400047B2FAB22421019800F041F8054601E0A1
:103750000125ED432846FEBD9C450008CC00002015
:1037600070B5054600BF2846FFF704FF0446002C4D
:1037700002D000BF00BF0AE000212846FFF79CFDF1
:103780000446002C02D000BF00BF00E000BF00BF15
:10379000002C09D103212846FFF7BCFF0446002274
:1037A0001621284600F013F8204670BD38B50546AE
:1037B00000BF6A4616212846FFF7D3FD0446684637
:1037C0000078012801D0002CF3D0204638BDFEB58A
:1037D00007460D4616466C46281220706570A67086
:1037E000032221463846FFF78FFB02900298FEBD68
:1037F000FEB507460E46154601AC301220706670C5
:10380000280EA0702802000EE0702804000E20711F
:103810006571062221463846FFF776FB0090009836
:10382000FEBDFEB507460D4616466C4628122070B2
:1038300065703012A070E670042221463846FFF70A
:1038400063FB02900298FEBDF3B581B00D46EF68B0
:103850000E48874215D23946019800F0BFF8044659
:10386000032000900098401E400009490E5A094864
:103870008189A14200DA8489B44200DD3446EC61DA
:1038800001E00020E8610020FEBD000010090500F5
:10389000A2450008C4000020F1B58AB000200990BC
:1038A00000BF08AA2A210A98FFF75BFD0446002CF6
:1038B00002D000BF00BF82E008A80078002803D132
:1038C000012009902820089008A800787D21C900CF
:1038D0004843C009059002AA2D210A98FFF741FD2F
:1038E0000446002C02D000BF00BF68E003AA1C21E0
:1038F0000A98FFF736FD0446002C02D000BF00BF37
:103900005DE004AAB8210A98FFF748FD0446002CA0
:1039100002D000BF00BF52E001AA2C210A98FFF795
:1039200020FD0446002C02D000BF00BF47E06846DF
:1039300001797D20C001FCF7F1FB244908660846A7
:1039400045680598A84204D30598411B1F48C165E6
:1039500002E000211D48C1656846007A0221084046
:10396000002811D007AA26210A98FFF73DFD04463A
:10397000002C02D000BF00BF21E06846808B7D2173
:10398000C9004843C60900E00026049908026946B8
:10399000097B091FFCF7ACFB0746711BB94200D33A
:1039A000771B6846007978430009069006990A98C3
:1039B00000F014F881B205485830818100BF00BF83
:1039C000002C00D1099C20460BB0F0BD6C000020FB
:1039D0005021014A916570476C000020FEB50E46EB
:1039E0001848806D00901748076EC06D0190002E3A
:1039F00024DD31461448FCF791FB0446FF3CE53CCE
:103A0000002C01DC00251AE001204003844208DA82
:103A1000009AB918019A62431046FCF769FB044604
:103A200007E0009839182046FCF762FB01994843EB
:103A300004462046FFF744FD054600E0034D2846B6
:103A4000FEBD00006C00002000688909FFFFFF7FB9
:103A5000F1B586B01820059046200490C820039048
:103A60000720029001AAFF210A310698FFF779FC8E
:103A700000900098002805D000BF00BF0020C04380
:103A800007B0F0BD6846047902990C4001AAFF21F5
:103A90000B310698FFF765FC00900098002804D0D1
:103AA00000BF00BF0020C043EAE7684605790499DB
:103AB000059841180A2068430E18601C704303994A
:103AC00047183846DCE70000F3B587B00D46002004
:103AD000069000270026059004900390324802903B
:103AE000062001900020009000BF05AA6C210798D5
:103AF000FFF754FC0446002C02D000BF00BF4EE08C
:103B000005990298814201D90020059004AA7421E8
:103B10000798FFF743FC0446002C02D000BF00BF0B
:103B20003DE006AA7C210798FFF738FC0446002CEC
:103B300002D000BF00BF32E003AA80210798FFF740
:103B40002DFC0446002C02D000BF00BF27E00698E1
:103B500068610398A86103980090039906988842C9
:103B600001D9069800900098002801D10F480090D4
:103B70007D22D2000599514308460099FCF7B8FA16
:103B80000746019A049951437D22D20051430846C9
:103B90000099FCF7ADFA06462F61EE6000BF00BF4A
:103BA000204609B0F0BD0000FFFFFF7F18F60000BF
:103BB00070B504460026054806683246DA212046DC
:103BC000FFF716FE0546284670BD00006C00002079
:103BD00002E008C8121F08C1002AFAD170477047D6
:103BE000002001E001C1121F002AFBD17047F3B58C
:103BF00085B00C4600260320049000BF03AA642170
:103C00000598FFF7AEFB0746002F02D000BF00BFAC
:103C100019E06846067B208980B2E1680091019036
:103C200070003218208881B22369059800F032F8BC
:103C30000546002D02DA0027FF4304E025847000CA
:103C40003018608400BF00BF384607B0F0BD0000E8
:103C500010B5024600200E4B186100230C4850306E
:103C60008370C370037143718371038000210AE084
:103C70000023DB434C0006481430035300238C0020
:103C800014300351491C0A29F2DB002010BD00004A
:103C90006C000020FFB5A3B01D4600BF002021909E
:103CA0001D901C901B901A901990189017901690C8
:103CB000159014901390129011901090FF202D30B9
:103CC0000390FE4E2D980C2804D00D2807D00F2805
:103CD0000FD109E0B0B2249000201D9012E0B0B2E4
:103CE000249001201D900DE0B0B2249001201D9081
:103CF00008E02598B04202D300201D9001E0012089
:103D00001D9000BF00BF24982290ED4840680490A9
:103D1000EB48C16D049808180B90192149010498CB
:103D200040180A90B4220B9951430846FF213931BB
:103D3000FCF7DEF90146049808180990DF4A55326D
:103D40000B9951430846FF213931FCF7D1F901465F
:103D5000049808180890AF22D2000B9951430846E6
:103D6000FF213931FCF7C4F901460498081807907F
:103D700025983C2806DA0A98854203D2B0B22290F0
:103D8000012021902598A52806DA0998854203D2BA
:103D9000B0B2229001202190CA492C98884202D9C1
:103DA0000120199021904B2D02D2012019902190D1
:103DB000C348806A002819D0C148806AA8420AD244
:103DC000BF4A916A926AAA1A64235A431046FCF7C2
:103DD0008FF918900CE0BA4A916A926A521B6423D8
:103DE0005A431046FCF784F9189001E0002018901F
:103DF0001898322801D9012019901998012813D157
:103E00000020AF49086100240BE00021C943620093
:103E1000AB48143081520021A20014308150601C44
:103E200084B20A2CF1DB13E009240FE0601E41008C
:103E3000A3481430415A62008152601E8100A0489C
:103E400028304158A2008150601E84B2002CEDDC65
:103E50001D98012803D19A492498888203E0002103
:103E6000C9439748818296488562FF215F31259832
:103E7000884202DA0898854209D3FF215F312598EC
:103E8000884202DB0798854201D30120219006AACF
:103E9000FF21AD312398FFF764FA0746002F02D0C7
:103EA00000BF00BFE9E16846007E209006AAFF211E
:103EB0000D312398FFF755FA0746002F02D000BFB7
:103EC00000BFDAE16846007E1F9006AAFF2111318B
:103ED0002398FFF746FA0746002F02D000BF00BF25
:103EE000CBE16846007E1E9020983E280AD11F989C
:103EF000C1B27348503081701E98C1B270485030C2
:103F0000C17009E01F98C1B26D48503001711E9810
:103F1000C1B26B48503041712198012833D12098AB
:103F20003E2816D03E22FF21AD312398FFF74FFCEB
:103F30000746002F02D000BF00BF9EE10122F22100
:103F40002398FFF744FC0746002F02D000BF00BFB4
:103F500093E11F98C1B25A48503081701E98C1B287
:103F600057485030C1701F98C1B255485030017148
:103F70001E98C1B25248503041710020504908612A
:103F8000229827B0F0BD4E48007CC007C00F002823
:103F900004D13C2006900520059003E03E200690C9
:103FA000012005906846027EFF21AD312398FFF77E
:103FB0000EFC0746002F02D000BF00BF5DE1F221DA
:103FC000059A2398FFF703FC0746002F02D000BF95
:103FD00000BF52E13A480069401C3949086108466F
:103FE0005030C1784079814206DD35485030C17883
:103FF0004079081A0F9001E000200F900F98C1B28D
:104000002F485030817181780079814206DD2C483B
:10401000503081780079081A0E9005E02848503019
:1040200001798078081A0E90E121C9000E98884223
:1040300003D90E98401A0D9001E000200D90E12167
:10404000C9000E9840180C900D990F98884203D320
:104050000C990F98884202D901201C90C1E00520DC
:1040600019491E23FF222D320091019029462C98D8
:1040700000F010F9039000201790169015901490FE
:10408000139012901190002425E061000C48143028
:10409000405A0E4988421CD01798401C80B2179095
:1040A000610007481430415A169808181690A1006C
:1040B0000348283041581398081809E0FD02000011
:1040C0006C0000204C1D0000C4090000FFFF000030
:1040D0001390601C84B20A2C02DA17980628D4DBED
:1040E0001798002809DD17991698FCF701F8159024
:1040F00017991398FBF7FCFF129000201790169069
:10410000139000241EE061005D48405A5D498842DA
:1041100016D01798401C80B2179061005848415A39
:104120001598081A4043169940181690A100544853
:10413000143041581298081A4043139940181390AC
:10414000601C84B20A2C02DA17980628DBDB179869
:1041500003280CDB17991698FBF7CAFF80B214905E
:1041600017991398FBF7C4FF80B2119002E000206A
:104170001490119044491198884230D2179803281E
:1041800002DAB0B222902CE04049119888420CD259
:104190003F4A0399511A119A514308463B49FBF78C
:1041A000A7FF03994018109001E039481090149827
:1041B000C1001098814202D201201A9011E010999A
:1041C0001498884208D21798032802DB01201B901C
:1041D00007E0B0B2229004E001201C9001E0012031
:1041E0001C902298B0420DD125483C300088002810
:1041F00041DD23483C300088401E81B220483C30DD
:10420000018038E01C98012811D1B0B222901C48DE
:104210003C300088801C81B219483C300180008805
:10422000042828DD042116483C30018023E01B9837
:10423000012819D112483C30008800281BDDB0B29B
:1042400022900F483C300088022808DD0C483C30A2
:104250000088801E81B20A483C3001800BE00021BA
:1042600007483C30018006E01A98012803D100215C
:1042700003483C300180229883E60020C04380E65A
:1042800080000020FFFF0000905F0100AC0D0000E7
:1042900088130000FFB581B016461F46019800281C
:1042A00008D064220299514308460199FBF720FF88
:1042B00084B200E00C4CBC4201D3354610E00B98B0
:1042C000844201D80A9D0BE00B9AA21A0A9BF31AAA
:1042D0005A4310460B9AB91AFBF70AFF0A99451878
:1042E000284605B0F0BD00000F27000070B5044659
:1042F000FCF782FA051900E000BFFCF77DFAA8423E
:10430000FAD370BD1FB5FCF7ABFCFEF7B9F8FDF7AB
:10431000D3FFFDF7B7FFFEF701F8FEF71DF8FEF734
:104320004FF8FBF721FF00215220FFF77DF8002115
:104330006220FFF779F80A20FFF7D8FF01216220F9
:10434000FFF772F80120FFF7D1FF5220FFF72EFA96
:1043500001215220FEF7B4FD62215220FFF79AF8A6
:104360006220FEF7E9FD01215220FFF75DF80120F0
:10437000FFF7BCFF5220FFF719FA01215220FEF788
:104380009FFD5220FEF7D8FD01215220FEF786FD49
:1043900001216220FEF782FD5220FEF73EFE6220E0
:1043A000FEF73BFE6748FDF74DFB08216548FDF72A
:1043B0009DFC654B032265A16548FDF763FD00BFC9
:1043C000FCF71AFA7D2109018842F9D3B8E0614867
:1043D000006861496220FEF7D1FE60495220FEF775
:1043E000CDFE5E488068002816D15C49086803212C
:1043F000FBF794FE7F21081A5949086008460068B7
:10440000002801DA00200860554800687F2806DD92
:104410007F205349086002E00020514908604E485F
:104420008068002815D14C4908680321FBF776FE07
:104430000A304C49086008460068002801DA00206C
:104440000860484800687F2806DD7F2045490860ED
:1044500002E000204249086000E030BF3C48006EA6
:10446000203040780128F8D13948FEF70DFB3E484E
:1044700000683C490968884205D13C4800683849D1
:10448000096888424CD036480068002808D138A016
:1044900000680390032203A92D48FDF76BFD3FE060
:1044A0003248006800281DD132A30FCB6C460FC4E0
:1044B0002C480068C1B2684681712A480068C1B2C0
:1044C0006846C17126480068C1B2684681722448B6
:1044D0000068C1B2684601730D2269461C48FDF7A9
:1044E00049FD1DE027A103C9039102901D48006802
:1044F000C1B2684641721B480068C1B26846817209
:1045000017480068C1B26846417315480068C1B2D7
:104510006846C173082202A90D48FDF72BFD00BFB4
:1045200010480068104908600D4800680F4908608D
:104530000B4800680A490968484302490968C8638A
:1045400045E700001401002050C300000041540062
:1045500050010020000002401C020020F801002051
:104560000400002008000020100000200C000020A3
:10457000B27B0000C213924040E20000B207002765
:1045800000000000E20000B2070027000000000069
:10459000010203040102030406070809FD007F006D
:1045A0005400B900720144020014000A00058002A0
:1045B000AB014001000100284E6F742075736564E3
:1045C000203130004E6F742075736564203900000F
:1045D0004D617820436F6E76657267656E63650026
:1045E0004E6F205461726765742049676E6F726503
:1045F000000000004561726C7920436F6E76657231
:1046000067656E636520457374696D61746500004C
:1046100046696C746572656420627920706F73748A
:104620002070726F63657373696E670056435345FC
:104630004C205761746368646F670000504C4C31C4
:10464000204C6F636B000000504C4C32204C6F6369
:104650006B0000004D6178205369676E616C2054D7
:104660006F204E6F69736520526174696F0000009E
:104670004E6F204572726F72000000005643534522
:104680004C205761746368646F67205465737400CD
:10469000564353454C20436F6E74696E7569747947
:1046A00020546573740000005261772052616E6778
:1046B000696E6720416C676F20556E646572666C29
:1046C0006F7700005261772052616E67696E6720D4
:1046D000416C676F204F766572666C6F77000000E3
:1046E0000047000800000020D8000000D03B000870
:1046F000D8470008D800002068050000E03B00080B
:104700000000000000000000000000007F0000002A
:104710007F00000000127A0000000000000000008E
:1047200001020304060708097046000890460008C5
:104730007C4600082C4600083C4600084846000815
:10474000F4450008D0450008E0450008C4450008CD
:10475000B845000854460008A8460008C4460008AA
:10476000AC460008C84600081046000800000000DB
:104770000000000055006400000000000000000080
:104780000000000000000000000000000000000029
:104790000000000000000000000000000000000019
:1047A0000000000000000000000000000000000009
:1047B00000000000000000000000000000000000F9
:1047C00000000000000000000000000000000000E9
:0847D0000000000001000000E0
:04000005080000C12E
:00000001FF
