:020000040800F2
:10000000380D0020D5000008DD000008DF000008E2
:1000100000000000000000000000000000000000E0
:10002000000000000000000000000000E1000008E7
:100030000000000000000000E30000087533000825
:10004000E7000008E7000008E7000008E7000008F4
:10005000E7000008E7000008E7000008E7000008E4
:10006000E7000008E7000008E7000008E7000008D4
:10007000E7000008E7000008E7000008E7000008C4
:10008000E7000008E7000008E7000008E7000008B4
:10009000E7000008E7000008E7000008E7000008A4
:1000A000E7000008E7000008E7000008E700000894
:1000B000E7000008E7000008E7000008C94800085A
:1000C0000348854600F050F8004800477D5D000871
:1000D000380D00200448804704480047FEE7FEE74B
:1000E000FEE7FEE7FEE7FEE7FD330008C10000087B
:1000F00030B50B46014600202022012409E00D46C0
:10010000D5409D4205D31D469540491B2546954047
:1001100040191546521E002DF1DC30BD70B500248B
:100120002546002801DA01244042002901DA012590
:100130004942FFF7DDFFAC4200D04042002C00D026
:10014000494270BDD2B201E00270401C491EFBD290
:1001500070470022F6E710B513460A4604461946D2
:10016000FFF7F0FF204610BD064C0125064E05E0C6
:10017000E36807CC2B430C3C98471034B442F7D3C8
:10018000FFF7A2FF506100087061000870B58C187D
:100190000578401C6B075B0F01D10378401C2A11C6
:1001A00006D10278401C03E006780E70401C491C02
:1001B0005B1EF9D12B0705D40023521E0DD40B7002
:1001C000491CFAE70378401CCB1A921C03E01D7807
:1001D0000D70491C5B1C521EF9D5A142D8D30020DA
:1001E00070BD0346012A02D0022A02D100E000E0DD
:1001F00000BF00BF0020704701460020704700206C
:100200007047000010B503460248034C20600020F0
:1002100010BD0000900200201400002001460020C4
:10022000704701460020704770B504460D464320D4
:10023000C0000659402106483018401CFFF789FFCE
:10024000EA8803483118491C204603F011FD70BDAF
:100250008A1B000070B506460C464320C000855935
:10026000E088002819D0E2880C482918491C30463B
:1002700003F0DBFC01203721C90169188872A179DC
:100280000648281840304170A088FF210902084024
:100290000112024828184030817070BD8A1B00008E
:1002A000014600207047000000B587B000BF164827
:1002B00040690121490408431349486108464069DF
:1002C000012149040840019000BF00BF00BF0E4853
:1002D0004069490008430C494861084640690121CA
:1002E00089040840019000BF00BF06200290112041
:1002F0000390012004900020059002A90920C00667
:1003000000F004F807B000BD0010024078B50346C5
:10031000002200240020E3E0012696400D683540CD
:100320002C46002C7ED04D68022D02D04D68122D37
:1003300015D1D508AE001D462035A8595507EE0E3B
:100340000F25B5400646AE4330465607F60E0D69FA
:10035000B5402843D508AD001E46203670511868B8
:1003600056000325B5400646AE4330460D79AD072D
:10037000AD0F5600B540284318604D68012D08D0D8
:100380004D68022D05D04D68112D02D04D68122DFB
:1003900018D1986856000325B5400646AE4330464E
:1003A0005600CD68B54028439860586801259540AF
:1003B0000646AE43304610264D6835402D0995401F
:1003C00028435860D86856000325B5400646AE431A
:1003D000304656008D68B5402843D8600126360760
:1003E0004D683540B5427AD100BF404DAD69012618
:1003F00035433E4EB5613546AD69ED07ED0F0095CD
:1004000000BF00BF3A4D9608B600A85995072E0FB9
:100410000F25B5400646AE4330460925ED06AB42F2
:1004200003D100E05BE0002514E0324DAB4201D186
:1004300001250FE0304DAB4201D102250AE02F4DDE
:10044000AB4201D1032505E02D4DAB4201D104257E
:1004500000E005259607360FB5402843244D960841
:10046000B600A851274D28680546A5432846012611
:1004700036044D683540B54202D10546254328462D
:10048000204D286068680546A54328460126760465
:100490004D683540B54202D1054625432846194DE1
:1004A0006860A8680546A5432846012636054D68BC
:1004B0003540B54202D1054625432846114DA86076
:1004C000E8680546A5432846012676054D6835406F
:1004D000B54202D10546254328460A4DE860521C24
:1004E0000D68D540002D00D016E778BD0010024001
:1004F000080001400004004800080048000C0048C3
:100500000010004800040140002A01D0816100E091
:1005100081627047014800687047000000000020B9
:1005200002463520805C20282FD100BF3420805C1B
:10053000012801D10220704701233420835400BFD9
:100540002423352083541068006840084000136855
:1005500018601068006801231B0398431368186033
:100560001068006808431368186010680068012369
:1005700018431368186020233520835400BF0023DC
:100580003420835400BF0020D5E70220D3E70000C9
:1005900010B50446002C01D1012010BD3520005DAE
:1005A000002805D1002134200155204600F0C0F973
:1005B000242135200155206800684008400021684A
:1005C00008600F2109066068884321680861206877
:1005D00080680121C903884321688860A0680028D9
:1005E0000FD0E068012806D10121C903A0680843A3
:1005F0002168886005E021218902A06808432168FC
:100600008860E068022802D1800221684860206882
:1006100040681049084321684860616920690843BF
:10062000A169090208432168C860216AE06908439A
:10063000216808602068006801210843216808607B
:100640000020A063202135200155002136200155CE
:100650000020A2E700800002FFB581B004461646E4
:100660001D4600273520005D202876D1206880694E
:100670000121C9030840C00B002802D0022005B0A8
:10068000F0BD00BF3420005D012801D10220F6E753
:1006900001213420015500BF2221352001551021B0
:1006A000362001550020A063FF2D0ADD09208002BD
:1006B0000B05FF2200902046029902F00FFAFF2757
:1006C00028E0002D0BDD09208002EAB201235B0641
:1006D00000902046029902F001FA2F461AE0092004
:1006E0008002EAB2002300902046029902F0F6F957
:1006F0002F460022402120460A9B02F007FA0028DC
:1007000001D00320BBE7206840680121890308432A
:100710002168486039E00421204602F049FA0028A7
:1007200006D0A06B042801D10120A8E70320A6E78A
:100730002068406A3070761C7F1E681E85B2002FCC
:1007400023D1002D21D00022802120460A9B02F0D7
:10075000DDF9002802D0032091E73AE0FF2D0ADD01
:10076000002001231B06FF2200902046029902F080
:10077000B5F9FF2709E00020EAB201235B060090EB
:100780002046029902F0AAF92F46002DC3DC192158
:10079000204602F05BFA002806D0A06B042801D1A5
:1007A00001206CE703206AE720202168C8612068E7
:1007B00040680949084021684860202135200155DA
:1007C00000213620015500BF3420015500BF002014
:1007D00055E7022053E7000000E800FEFFB583B0B4
:1007E000044616461D460C9F002002903520005DF1
:1007F00020287DD1206880690121C9030840C00BF1
:10080000002802D0022007B0F0BD00BF3420005DF8
:10081000012801D10220F6E701213420015500BF53
:100820002121352001551021362001550020A063DB
:10083000FF2D0ADD4802C302FF22009020460499E2
:1008400002F04CF9FF20029009E001204003EAB2D7
:10085000030300902046049902F040F902953CE021
:100860003946204602F021FA002806D0A06B042861
:1008700001D10120C7E70320C5E7307821688862ED
:10088000761C0298401E0290681E85B202980028CD
:1008900023D1002D21D03B4600228021204602F0AA
:1008A00035F9002801D00320ADE7FF2D0BDD002036
:1008B00001231B06FF2200902046049902F00EF946
:1008C000FF20029009E00020EAB201235B060090BD
:1008D0002046049902F002F90295002DC0DC394649
:1008E000204602F0B3F9002808D0A06B042800E0ED
:1008F00019E001D1012086E7032084E72020216848
:10090000C861206840680949084021684860202182
:100910003520015500213620015500BF34200155F6
:1009200000BF00206FE702206DE7000000E800FE36
:1009300010B586B004461249206888421ED10320B3
:100940008002019012200290012003900320049065
:100950000120059001A90B48FFF7D8FC00BF0A4809
:10096000C0690121890508430749C8610846C06973
:10097000012189050840009000BF00BF06B010BDEE
:10098000005800400004004800100240024800687F
:10099000401C0149086070470000002010B506485F
:1009A00000681021084304490860002000F006F8A0
:1009B00000F018F8002010BD0020024070B5044679
:1009C00001F03AFA06467D21C900FFF791FB054682
:1009D00001F002FE00222146501E00F027F8002000
:1009E00070BD000008B500BF0948806901210843B7
:1009F0000749886108468069C007C00F009000BFA2
:100A000000BF00221146501E00F010F808BD000083
:100A10000010024000BFC206D20E01219140024ADE
:100A2000116000BF7047000000E100E070B50446AF
:100A30000D4616462946204602F010FA70BD70B5E4
:100A400005460C4680202040802807D16006400ED5
:100A50001C2670432E462836811905E01C20604371
:100A60002E46FF3609368119002A03D100208872EC
:100A70008B8004E001208872CB80180C0881002054
:100A800070BD70B504460D461C21694323462833CA
:100A9000C9180A69872189000859294603F00FFB04
:100AA00070BD70B504460D461C2169432346FF33D3
:100AB0000933C9180A69872189000859294603F0B2
:100AC00075FB70BD70B502460B468020184080282B
:100AD00007D15806400E1C246043144628340119DF
:100AE00007E05806400E1C2460431446FF340934C6
:100AF00001195806400E087080201840C00948703F
:100B000000BFFF20E930805C012801D1022070BDC8
:100B10000124FF20E930845400BF887A00284FD197
:100B20004878002825D00C78A4001068005B402489
:100B3000204000280BD00C78A4001068005B7E4C8D
:100B400020407E4C20430D78AD00146860530D7832
:100B5000AD001468645B784D30352C40204601248C
:100B6000E403044380252C430E78B6001568AC538B
:100B7000D9E00C78A4001068005B0124A403204095
:100B800000280BD00C78A4001068005B6A4C204051
:100B90006B4C20430D78AD00146860530D78AD00A8
:100BA0001468645B664DF13D2C4020460124E4034B
:100BB000044380252C430E78B6001568AC53B2E090
:100BC0004878002857D10C78A4001068005B0124F5
:100BD000A403204000280BD00C78A4001068005B10
:100BE000554C2040564C20430D78AD00146860539E
:100BF0000C78A4001068005B4024204000280BD033
:100C00000C78A4001068005B4B4C20404B4C2043F8
:100C10000D78AD00146860530C78A4001068005B78
:100C2000454C2040454C20430D78AD00146860537E
:100C30000D78AD001468645B414DF13D2C402046B9
:100C40000124E403044380252C430E78B600156884
:100C5000AC530D78AD001468645B374D30352C40D3
:100C600020460124E403044380252C430E78B6007B
:100C70001568AC5357E00C78A4001068005B0124A1
:100C8000A403204000280BD00C78A4001068005B5F
:100C9000294C20402A4C20430D78AD001468605345
:100CA0000C78A4001068005B4024204000280BD082
:100CB0000C78A4001068005B1F4C20401F4C2043A0
:100CC0000D78AD00146860530C78A4001068005BC8
:100CD000194C20401A4C20430D78AD001468605325
:100CE0000D78AD001468645B134D30352C40204600
:100CF0000124E403044380252C430E78B6001568D4
:100D0000AC530D78AD001468645B0D4DF13D2C4083
:100D100020460124E403044380252C430E78B600CA
:100D20001568AC5300BF00BF0024FF20E930845495
:100D300000BF0020EBE600008F8F0000C0800000A5
:100D400080C0000070B502460B4680201840802805
:100D500007D15806400E1C2460431446283401195C
:100D600005E01C2058431446FF34093401190020C3
:100D700088705806400E087080201840C0094870DE
:100D800000BFFF20E930805C012801D1022070BD46
:100D90000124FF20E930845400BF4878002828D07F
:100DA0000C78A4001068005B4024204000280BD081
:100DB0000C78A4001068005B274C2040274C20438F
:100DC0000D78AD00146860530D78AD001468645B55
:100DD000214D30352C4020461024604020246040B6
:100DE000A402044380252C430E78B6001568AC534A
:100DF0002AE00C78A4001068005B0124A4032040C2
:100E000000280BD00C78A4001068005B124C204026
:100E1000134C20430D78AD00146860530D78AD007D
:100E20001468645B0E4DF13D2C40204601242403E0
:100E3000604064006040A400044380252C430E7889
:100E4000B6001568AC5300BF00BF0024FF20E93096
:100E5000845400BF00209AE78F8F0000C0800000FC
:100E600080C00000FFB581B004460D460020009010
:100E700080202840802807D16806400E1C23584354
:100E800023462833C11807E06806400E1C23584348
:100E90002346FF330933C1186806400E08708020CE
:100EA0002840C0094870CA600498C87000BFFF207D
:100EB000E930005D012802D1022005B0F0BD012318
:100EC000FF20E930035500BFC878002806D001286C
:100ED0002BD0022810D0032835D118E00B789B00C6
:100EE0002068C05AE64B1840FF30FF3002300E78C1
:100EF000B6002368985326E00B789B002068C05A00
:100F0000DF4B18400E78B600236898531BE00B782F
:100F10009B002068C05ADA4B184003235B02C018BC
:100F20000E78B600236898530DE00B789B0020687C
:100F3000C05AD34B184001239B02C0180E78B6004C
:100F40002368985300BF00BF0B789B002068C05AED
:100F5000CC4B1840CC4B18430B7818430E78B60096
:100F600023689853887A00287ED14878002835D0A5
:100F700088884010430020684030008A0E78F600D0
:100F800080190127BF022668F61983530B789B004E
:100F90002068C05A4023184000280CD00B789B00D2
:100FA0002068C05AB74B1840B74B403318430E78EF
:100FB000B600236898530E78B60023689B5BB14E49
:100FC000303633401846202358409B020343802686
:100FD00033430F78BF002668F35348E188884010F8
:100FE000430020684030008A0E78F6008019001D0A
:100FF0000127BF022668F619835320684030008A13
:101000000E78F6008019801D2668F6198319CE68BF
:101010003E2E0FD9CE68F602300C0E7BF606F60E89
:10102000002E01D1461EB0B286020127FF033E43C7
:101030001E800CE0CE68F603300C0E7BF607F60F30
:10104000002E01D0461CB0B28606360C1E800B78EE
:101050009B002068C05A01239B03184000280DD034
:101060000B789B00206800E01EE0C05A854B1840BA
:10107000864B18430E78B600236898530E78B60056
:1010800023689B5B814EF13E3340184601231B03CE
:1010900058405B0058409B000343802633430F7841
:1010A000BF002668F353E2E00B789B002068C05A2B
:1010B000FF2301331843734B1840734B18430E78CA
:1010C000B60023689853C888401043002068403019
:1010D000008A0E78F60080190127BF022668F619EB
:1010E000835308894010430020684030008A0E78FE
:1010F000F6008019001D2668F619835348780028E9
:101100005CD10B789B002068C05A3B011840002836
:101110000BD00B789B002068C05A5A4B18405B4B91
:1011200018430E78B600236898530B789B0020680C
:10113000C05A4023184000280CD00B789B00206830
:10114000C05A504B1840504B403318430E78B600ED
:10115000236898530B789B002068C05A494B18406D
:10116000494B403318430E78B600236898530E78E5
:10117000B60023689B5B454EF13E33401846012381
:101180001B0358405B0058409B00034380263343B9
:101190000F78BF002668F3530E78B60023689B5B78
:1011A000384E3036334018460123DB030343802694
:1011B00033430F78BF002668F35358E00B789B0049
:1011C0002068C05A01239B03184000280BD00B78DD
:1011D0009B002068C05A2B4B18402C4B18430E78AC
:1011E000B600236898530B789B002068C05A4023B0
:1011F000184000280CD00B789B002068C05A214B67
:101200001840214B403318430E78B600236898539A
:101210000B789B002068C05A1A4B18401B4B184390
:101220000E78B600236898530E78B60023689B5B4F
:10123000144E3036334018460123DB030343802627
:1012400033430F78BF002668F3530E78B600236847
:101250009B5B0E4EF13E334018460123DB030343F4
:10126000802633430F78BF002668F35300BF00BFCA
:101270000023FF20E930035500BF00981DE6000061
:101280008F8900008F8F00008080000080C00000E8
:10129000FFB504460D466806400E1C225043224608
:1012A000FF3209328118029808614B610020886181
:1012B00048706806400E087000BFFF20E930005DEE
:1012C000012802D1022004B0F0BD0122FF20E93044
:1012D000025500BFCA684869904204D9CB68486982
:1012E000C01A486102E04B6900204861887A0028F2
:1012F00027D120684030008A0E78F6008019801DC2
:101300000127BF022668F61982193E2B0DD9DE028D
:10131000300CDE06F60E002E01D1461EB0B286025B
:101320000127FF033E4316800AE0DE03300CDE0790
:10133000F60F002E01D0461CB0B28606360C168081
:1013400073E04878002827D120684030008A0E7862
:10135000F6008019801C0127BF022668F619821941
:101360003E2B0DD9DE02300CDE06F60E002E01D12A
:10137000461EB0B286020127FF033E4316800AE0F4
:10138000DE03300CDE07F60F002E01D0461CB0B293
:101390008606360C16800EE0487801280BD12068AE
:1013A0004030008A0E78F6008019801C0127BF02A9
:1013B0002668F61983534878002827D120684030E2
:1013C000008A0E78F6008019801D0127BF0226686A
:1013D000F61982193E2B0DD9DE02300CDE06F60E10
:1013E000002E01D1461EB0B286020127FF033E4304
:1013F00016800AE0DE03300CDE07F60F002E01D067
:10140000461CB0B28606360C16800EE048780128DD
:101410000BD120684030008A0E78F6008019801CBD
:101420000127BF022668F61983530E78B60022689A
:10143000925B0C4E32401046012212035040520083
:10144000504092000243802632430F78BF00266846
:10145000F25300BF0022FF20E930025500BF0020F8
:1014600031E700008FBF000070B502460B4600BF99
:10147000FF20E930805C012801D1022070BD0124E9
:10148000FF20E930845400BF80201840802807D115
:101490005806400E1C24604314462834011905E008
:1014A0001C2058431446FF34093401190120887068
:1014B0005806400E087080201840C009487008780F
:1014C000002814D10D78AD001468645B204D2C40C9
:1014D000204601242403604010246040E4020443B9
:1014E00080252C430E78B6001568AC5328E0487868
:1014F000002811D00D78AD001468645B154D2C40A8
:10150000204610246040E402044380252C430E78DA
:10151000B6001568AC5313E00D78AD001468645B39
:101520000B4D303D2C402046012424036040E40054
:10153000044380252C430E78B6001568AC5300BFD9
:1015400000BF0024FF20E930845400BF002095E74D
:10155000BFBF0000BF8F0000FFB582B005460F4639
:101560001E46002001907806400E1C214843294663
:10157000283144180498206166610020A061012090
:1015800060707806400E207000BFFF20E930405D9B
:10159000012802D1022006B0F0BD0121FF20E93070
:1015A000415500BFE1686069884204D9E668606916
:1015B000801B606102E0666900206061A07A0028FB
:1015C00013D1B3B2A28821692868009001F0B8FE57
:1015D00028684030008A2278D2008018801C0123BD
:1015E0009B022A68D2188652A5E0217889002868D3
:1015F000405A4021084000283BD06078002826D17E
:1016000028684030008A2278D2008018801D0B01A3
:101610002A68D21881183E2E0DD9F202100CF2065B
:10162000D20E002A01D1421E90B282020123DB03B6
:101630001A430A800AE0F203100CF207D20F002AC4
:1016400001D0421C90B28206120C0A800EE0607833
:1016500001280BD128684030008A2278D2008018F7
:10166000801C01239B022A68D2188652208901908F
:101670003BE06078002827D128684030008A227833
:10168000D2008018801C01239B022A68D21881187E
:101690003E2E0DD9F202100CF206D20E002A01D114
:1016A000421E90B282020123DB031A430A800AE041
:1016B000F203100CF207D20F002A01D0421C90B2A4
:1016C0008206120C0A800EE0607801280BD128688F
:1016D0004030008A2278D2008018801C01239B02AF
:1016E0002A68D2188652E0880190B3B2216928682E
:1016F0000090019A01F024FE607800280CD1217836
:1017000089002868405A1A4908401A490843227833
:101710009200296888520EE0607801280BD1217868
:1017200089002868405A1249084013490843227822
:10173000920029688852227892002968895A0C4AB6
:10174000303211400846102148402021484089028B
:1017500001438022114323789B002A68D15200BFA5
:101760000021FF20E930415500BF002013E70000B1
:101770008F8F0000C080000080C0000070B504465C
:1017800000252068403080880121C9030840884234
:1017900002D1204601F09EFB206840308088012164
:1017A0008902084088420DD12068403080888843F3
:1017B000216840318880204600F02AF90021204627
:1017C00000F05CF9206840308088012189030840DE
:1017D000884206D1206840308088884321684031A3
:1017E0008880206840308088012149030840884271
:1017F00006D1206840308088884321684031888045
:10180000206840308088012109030840884218D1AF
:1018100020684030008804218843216840310880D6
:10182000BD252D02206840300580204600F008F9D3
:1018300020684030808801210903884321684031B5
:1018400088802068403080880121C9020840884291
:1018500022D12068403080888843216840318880C8
:101860002068403000880821084321684031088002
:1018700020684030008804210843216840310880F6
:10188000206840308088012109030840000B0028AF
:1018900002D1204600F028F92068403080880121DC
:1018A00049020840884209D1206840308088884336
:1018B000216840318880204600F0D8F82068403008
:1018C0008088FF2101310840884206D120684030DD
:1018D0008088884321684031888070BD70B5044697
:1018E00000250026002C01D1012070BDFF20EA3028
:1018F000005D002806D10021FF20E9300155204677
:1019000000F062F80321FF20EA30015500251BE0BA
:1019100001221C20684321462831401842701C20B7
:1019200068430D5400221C2068434018C2701C20DC
:1019300068434018C2601C206843401802611C20A4
:101940006843401842616D1C6068A842E0D80025D9
:101950001BE000221C2068432146FF31093140185A
:1019600042701C2068430D541C2068434018C2700C
:101970001C2068434018C2601C2068434018026164
:101980001C206843401842616D1C6068A842E0D882
:101990000121206840300180002120684030018012
:1019A000206840308180206840300182BD263602A8
:1019B000206840300680242001550121FF20EA30B4
:1019C0000155002091E7000038B504460E49206813
:1019D000884217D100BF0D48C0690121C9050843DD
:1019E0000A49C8610846C0690121C905084000903C
:1019F00000BF00BF002211461F20FFF717F81F206D
:101A0000FFF708F838BD0000005C004000100240FD
:101A100070B504460125A068022801D100BF01E08D
:101A2000012500BF00BF872189000859294602F01F
:101A3000B6FC87218900085902F06EFC70BD0000D9
:101A400010B50446A069002807D0074800690621A0
:101A500088430549086101F093FC872189000859F2
:101A600002F080FC10BD000000ED00E010B504465F
:101A700087218900085902F07DFC10BD024600BF95
:101A8000FF20E930805C012801D10220704701234A
:101A9000FF20E930835400BF002904D1802310685F
:101AA0004030838101E02420815400BF0023FF20C7
:101AB000E930835400BF0020E8E710B504468721D1
:101AC000890008592146FF31ED3102F077FC10BD45
:101AD000014608684030008B0122D20310430A6897
:101AE000403210830020704710B5044687218900DA
:101AF000085902F0B9FCA069002805D00348006924
:101B0000062108430149086110BD000000ED00E016
:101B1000F8B5044600250026012109042068084084
:101B2000884264D100BF5548C0690903084353493E
:101B3000C8610846C06909040840009000BF00BFA2
:101B40004F480068091508434D490860FEF7E2FC5C
:101B5000054606E0FEF7DEFC401B642801D90320A1
:101B6000F8BD47480068FF21013108400028F1D046
:101B70004248006A032109020840032212026168F8
:101B80001140884233D03D48006A114688430646DA
:101B90003A48006A012109040843384908620846A6
:101BA000006A012109048843344908620846066234
:101BB00002203040002811D0FEF7ACFC054607E0BB
:101BC000FEF7A8FC401B2F49884201D90320C7E734
:101BD0002A48006A022108400028F1D02748006AFC
:101BE0000321090288436168084324490862207878
:101BF000C007C00F002807D02048006B8008800075
:101C0000A16808431D490863022120680840022892
:101C100008D11A48006B032109048843E16808438E
:101C200016490863202120680840202807D113485E
:101C3000006B102188432169084310490863012182
:101C4000490420680840884207D10C48006B802175
:101C50008843A16908430949086301218902206872
:101C60000840884207D10548006B402188436169DC
:101C7000084302490863002072E700000010024098
:101C8000007000408813000070B504460D46002621
:101C900066480068C007C00FA8420ED263480068BB
:101CA0004008400028436149086008460068C007B2
:101CB000C00FA84201D0012070BD02212068084059
:101CC000022807D15A484068F0218843A168084398
:101CD000574948602078C007C00F00287ED0606850
:101CE000012808D152480068012149040840002811
:101CF00021D10120E0E76068022808D14C48006843
:101D0000012149060840002815D10120D4E7606868
:101D1000032808D14648406B0121090408400028E7
:101D200009D10120C8E74248006802210840002884
:101D300001D10120C0E73E4840688008800061680A
:101D400008433B494860FEF7E5FB0646606801280A
:101D50000FD107E0FEF7DEFB801B3649884201D930
:101D60000320A9E7324840680C2108400428F1D13B
:101D700034E0606802280FD107E0FEF7CBFB801B40
:101D80002C49884201D9032096E7294840680C2154
:101D900008400828F1D121E0606803280FD107E04E
:101DA000FEF7B8FB801B2349884201D9032083E753
:101DB0001F4840680C2108400C28F1D10EE007E0D4
:101DC000FEF7A8FB801B1B49884201D9032073E75B
:101DD000174840680C2108400028F1D113480068DA
:101DE000C007C00FA8420ED9104800684008400044
:101DF00028430E49086008460068C007C00FA84283
:101E000001D0012058E7042120680840042808D1A7
:101E100007484068072109028843E16808430449EC
:101E200048600020FEF7CAFD002045E70020024080
:101E3000001002408813000010B500F013F80649A6
:101E40004968F02211400909044A515CC84004491C
:101E500008600846006810BD00100240FC5F0008E2
:101E600018010020F0B589B02FA001460EC9C06846
:101E700005AC0EC4089030A001460EC9C06801AC84
:101E80000EC40490002400260027002500200090A6
:101E90002D4844680C20204000283DD0042804D060
:101EA000082805D00C2836D132E02848009036E0CA
:101EB0000F2080042040800C05A90D5C2248C06AD8
:101EC0000007000F01A90E5C0320C0032040012180
:101ED0000904884206D131461C48FEF709F96843D7
:101EE000074613E00320C00320400321C9038842B2
:101EF00006D131461648FEF7FBF86843074605E071
:101F000031461248FEF7F4F868430746009706E0AA
:101F10000F48009003E000BF0C48009000BF00BFD6
:101F2000009809B0F0BD0000020304050607080987
:101F30000A0B0C0D0E0F1010010203040506070812
:101F4000090A0B0C0D0E0F100010024000127A004F
:101F5000006CDC0238B5044600252078C007C00FAD
:101F600000286FD0FE4840680C21084004280CD09F
:101F7000FB4840680840082813D1F94840684903E5
:101F800008400121090488420BD1F548006801216D
:101F9000490408400028E4D06068002852D101209C
:101FA00038BD00BFEE480068012109048843EC49B0
:101FB000086008460068012189048843E8490860F0
:101FC00000BFFEF7A7FA054606E0FEF7A3FA401B9E
:101FD000642801D90320E3E7E148006801214904AE
:101FE00008400028F1D100BF6068012806D1DC4814
:101FF000006849100843DA49086032E06068002848
:102000000ED1D7480068012109048843D4490860EB
:1020100008460068012189048843D149086020E00E
:10202000606805280FD1CE48006801218904084363
:10203000CB49086008460068012109040843C849E3
:1020400008600EE036E0C6480068012109048843B4
:10205000C349086008460068012189048843C049D3
:10206000086000BF6068002812D0FEF753FA0546EA
:1020700006E0FEF74FFA401B642801D903208FE7E2
:10208000B74800680121490408400028F1D011E058
:10209000FEF740FA054606E0FEF73CFA401B6428CE
:1020A00001D903207CE7AE480068012149040840BB
:1020B0000028F1D1022120680840022862D1A848F6
:1020C00040680C21084000280CD0A5484068084012
:1020D00008281CD1A2484068490308400121C903CF
:1020E000884214D19E48006802210840002804D08C
:1020F000E068012801D0012052E799480068F821E2
:1021000088432169C9000843954908603AE0E068BE
:10211000002820D0924800680121084390490860B7
:10212000FEF7F8F9054606E0FEF7F4F9401B022831
:1021300001D9032034E78A480068022108400028BA
:10214000F2D087480068F82188432169C900084314
:102150008349086016E082480068400840008049D2
:102160000860FEF7D7F9054606E0FEF7D3F9401BF5
:10217000022801D9032013E77948006802210840AA
:102180000028F2D1082120680840082831D1206AAF
:10219000002817D07248406A0121084370494862FC
:1021A000FEF7B8F9054606E0FEF7B4F9401B022831
:1021B00001D90320F4E66A48406A02210840002859
:1021C000F2D016E06648406A400840006449486220
:1021D000FEF7A0F9054606E0FEF79CF9401B022831
:1021E00001D90320DCE65E48406A0221084000284D
:1021F000F2D1042120680840042870D100BF58485B
:10220000C069890608435649C8610846C06909047F
:102210000840009000BF00BF5248006809150843FD
:1022200050490860FEF776F9054606E0FEF772F9B8
:10223000401B642801D90320B2E64A480068FF2108
:10224000013108400028F1D000BF4548006A40082D
:102250004000434908620846006A04218843404917
:10226000086200BFFEF756F9054607E0FEF752F98F
:10227000401B3D49884201D9032091E63848006A55
:10228000022108400028F1D100BFA068012806D132
:102290003348006A01210843314908622CE0A068F4
:1022A00000280CD12E48006A400840002C490862E2
:1022B0000846006A04218843294908621CE0A06896
:1022C00005280DD12648006A0421084324490862E4
:1022D0000846006A01210843214908620CE034E005
:1022E0001F48006A400840001D4908620846006A0D
:1022F000042188431A49086200BFA068002812D050
:10230000FEF708F9054607E0FEF704F9401B1649F9
:10231000884201D9032043E61148006A022108409F
:102320000028F1D011E0FEF7F5F8054607E0FEF7CA
:10233000F1F8401B0C49884201D9032030E60848D7
:10234000006A022108400028F1D1102120680840CD
:10235000102860D1606901282DD10148406B05E04B
:102360000010024000700040881300000421084360
:102370008E4948630846406B012108438B494863F6
:10238000FEF7C8F8054606E0FEF7C4F8401B022831
:1023900001D9032004E68548406B0221084000284B
:1023A000F2D08248406BF8218843A169C9000843F4
:1023B0007E4948632FE06069401D00280FD17B48AB
:1023C000406B04218843794948630846406BF821F3
:1023D0008843A169C9000843744948631BE07348F6
:1023E000406B04210843714948630846406B40082C
:1023F00040004863FEF78EF8054606E0FEF78AF8CF
:10240000401B022801D90320CAE56848406B02211D
:1024100008400028F2D1202120680840202852D10D
:10242000624840680C2108400C280AD05F48406888
:102430000840082811D15D48406849030840884297
:102440000BD15A48406B01210904084000283AD0BA
:10245000E069012837D00120A2E5E069002819D001
:102460005248406B01210904084350494863FEF774
:1024700051F8054606E0FEF74DF8401B022801D949
:1024800003208DE54948406B0121090408400028DC
:10249000F1D018E04548406B0121090488434349C5
:1024A0004863FEF737F8054606E0FEF733F8401BB1
:1024B000022801D9032073E53C48406B012109043F
:1024C00008400028F1D1606A00286CD03748406885
:1024D0000C210840082864D0606A022847D133489C
:1024E000006801210906884330490860FEF712F8A8
:1024F000054606E0FEF70EF8401B022801D903202E
:102500004EE52A4800680121490608400028F1D11B
:1025100000BF2648C06A00090001216B0843234917
:10252000C862A16AE06A0843204949687B22D20355
:10253000914308431D49486000BF084600680121D7
:102540000906084319490860FDF7E4FF054606E05F
:10255000FDF7E0FF401B022801D9032020E51348C6
:1025600000680121490608400028F1D01BE00F480F
:1025700000680121090688430C490860FDF7CAFF7D
:10258000054606E0FDF7C6FF401B022801D90320DF
:1025900006E5064800680121490608400028F1D1F7
:1025A00001E00120FCE40020FAE4000000100240F9
:1025B000042806D10649096904221143044A11611D
:1025C00005E00349096904229143014A11617047FA
:1025D00000E000E07047000070B504462546681E24
:1025E0000949884201D901200CE0681E0749486169
:1025F0000321081F00F032FC0020044988610720F5
:102600000861002070BD0000FFFFFF0000E000E057
:1026100010B5FFF7DFFF10BD024600BF3820805C19
:10262000012801D10220704701233820835400BFC4
:10263000022339208354106840687023984313683C
:102640005860106840680B68184313685860106839
:1026500080688023984313689860106880684B688E
:1026600018431368986001233920835400BF002366
:102670003820835400BF0020D5E710B50446002C55
:1026800001D1012010BD3920005D002805D10021B5
:1026900038200155204600F00DF80221392001555F
:1026A000211D206800F0E6FE01213920015500209F
:1026B000E8E7000008B5094A016891420DD100BF62
:1026C0000749C96902221143054AD1611146C96906
:1026D00002221140009100BF00BF08BD000400406D
:1026E0000010024001460222392042540868006866
:1026F000012210430A681060012239204254002050
:102700007047F8B504460D46002600BF3820005D2E
:10271000012801D10220F8BD01213820015500BF58
:102720000221392001552068866877213046884388
:102730000646FF2109023046884306462068866027
:10274000286850283ED00CDC202863D004DC002808
:1027500056D0102868D158E0302860D0402863D186
:1027600044E0602838D070280DD001210903401AB8
:1027700002D0401A58D117E020688068C008C00015
:102780002168886051E0EB686A68A968206800F0F9
:10279000D1FE206886687721304688430646772038
:1027A00006432068866040E0EB686A68A968206894
:1027B00000F0C0FE20688068012189030843216879
:1027C000886032E0EA686968206801F033F85021D7
:1027D000206800F0BEFE28E0EA686968206801F021
:1027E00044F86021206800F0B4FE1EE0EA686968E1
:1027F000206801F01FF84021206800F0AAFE14E0D4
:102800000021206800F0A5FE0FE01021206800F0F4
:10281000A0FE0AE02021206800F09BFE05E03021A8
:10282000206800F096FE00E000BF00BF01213920C3
:10283000015500BF00213820015500BF00206AE784
:1028400010B586B004460A49206888420DD101209F
:1028500001900220029000200390032004900120A8
:10286000059001A90348FDF751FD06B010BD000019
:10287000000400400004004870B504460D461646AA
:1028800000BF3820005D012801D1022070BD012168
:102890003820015500BF022139200155002E06D0F5
:1028A000042E1BD0082E33D00C2E62D147E02946CF
:1028B000206800F05BFE20688069082108432168D9
:1028C00088612068806904218843216888612068C4
:1028D000806929690843216888614BE0294620689E
:1028E00000F09EFE206880690121C902084321682A
:1028F0008861206880690121890288432168886194
:10290000206880692969090208432168886131E0EB
:102910002946206800F0E8FE2068C06908210843C5
:102920002168C8612068C069042188432168C861A2
:102930002068C069296908432168C8611AE02946EE
:10294000206800F033FF2068C0690121C9020843F4
:102950002168C8612068C069012189028843216813
:10296000C8612068C0692969090208432168C861F3
:1029700000E000BF00BF01213920015500BF002148
:102980003820015500BF002080E710B50446002C18
:1029900001D1012010BD3920005D002805D10021A2
:1029A00038200155204600F00CF80221392001554D
:1029B000211D206800F05EFD012139200155002015
:1029C000E8E7704730B504460D46012229462068E5
:1029D00000F0A2FD1149206888420BD01049206800
:1029E000884207D00F492068884203D00E492068EA
:1029F000884201D1012000E00020002806D0206894
:102A0000406C0121C90308432168486420680068BC
:102A10000121084321680860002030BD002C0140DE
:102A200000400140004401400048014070B50446A8
:102A30000D460026FDF76EFD0646206880691021D0
:102A400008400009002845D015E0681C002812D075
:102A5000002D04D0FDF75EFD801BA8420BD920217C
:102A60003520015500213620015500BF3420015585
:102A700000BF032070BD2068806920210840400904
:102A80000028E2D010202168C86120202168C86198
:102A900020688069C007C00F0121484048400028D5
:102AA00004D12068806908432168886120684068F3
:102AB00009490840216848600420A063202135208E
:102AC000015500213620015500BF3420015500BFBB
:102AD0000120CFE70020CDE700E800FEF0B50C466E
:102AE000002105686968084D2940A505AD0D16044B
:102AF000FF273F043E4035431D43059E3543294390
:102B000005686960F0BD0000009800FCFFB581B069
:102B100004460E461D46FDF7FDFC074603980028B7
:102B200022D116E0681C002813D0002D04D0FDF738
:102B3000F1FCC01BA8420CD92021352001550021F1
:102B40003620015500BF3420015500BF032005B0D9
:102B5000F0BD206880693040B04201D1012000E022
:102B600000200028DED020E015E0681C002812D0EC
:102B7000002D04D0FDF7CEFCC01BA8420BD92021AC
:102B80003520015500213620015500BF3420015564
:102B900000BF0320DBE7206880693040B04201D1EC
:102BA000012000E000200028DFD10020CFE7000056
:102BB00070B504460D460026FDF7ACFC064639E02C
:102BC00029462046FFF732FF002801D0012070BDC2
:102BD00020688069202108404009002816D0202064
:102BE0002168C8612068406817490840216848602A
:102BF0000020A063202135200155002136200155F9
:102C000000BF3420015500BF0120E0E7002D04D0B3
:102C1000FDF780FC801BA8420CD9A06B2021084343
:102C2000A0633520015500BF00213420015500BFAD
:102C30000320CCE720688069042108408008002830
:102C4000BED00020C3E7000000E800FE70B50446D7
:102C50000D460026FDF75EFC06461DE0294620468F
:102C6000FFF7E4FE002801D0012070BD002D04D044
:102C7000FDF750FC801BA8420ED9A06B2021084311
:102C8000A0633520015500213620015500BF3420B6
:102C9000015500BF0320E8E7206880692021084033
:102CA00040090028DAD00020DFE770B504460D4661
:102CB000FDF730FC064620E029462046FFF7B6FE29
:102CC000002801D0012070BD681C002815D0002DFF
:102CD00004D0FDF71FFC801BA8420ED9A06B202159
:102CE0000843A0633520015500213620015500BF5F
:102CF0003420015500BF0320E5E7206880690221E8
:102D0000084040080028D7D00020DCE700B587B095
:102D100000BF194840690121490408431649486128
:102D200008464069012149040840019000BF00BFE6
:102D300000BF11484069490008430F4948610846EF
:102D40004069012189040840019000BF00BF0022B2
:102D500006210920C006FDF7D7FB062002901120AE
:102D6000039000200490059002A90920C006FDF7F9
:102D7000CDFA07B000BD00000010024010B50B48AE
:102D80000B4908600B484860002109488160012117
:102D9000C1600021016141618161C1610162FDF792
:102DA000F7FB00210248FDF7BBFB10BD00580040B7
:102DB000D00100205D3E302000B58DB01748184985
:102DC0000860002048600021154881601549C160F5
:102DD00000210161FFF751FC01200003099009A9BE
:102DE0000F48FFF78EFC0E48FFF7CFFD002007903D
:102DF000089007A90A48FFF70FFC60200090002008
:102E0000019002900490082269460548FFF734FDBE
:102E10000348FFF715FD0DB000BD000000040040A1
:102E20000C020020FFFF000010B5002207490848EF
:102E300001F00FF90749064801F044FB0649044830
:102E400000F032FE024801F01AFC10BD34000020F0
:102E500090020020680000201800002010B5002813
:102E600019DA1A4A03071B0F083B9B089B00D2582C
:102E70008307DC0EFF23A3409A438B071B0E8407B6
:102E8000E40EA3401A43114B0407240F083CA40886
:102E9000A4001A5118E00E4A03231B02D21883081B
:102EA0009B00D2588307DC0EFF23A3409A438B0775
:102EB0001B0E8407E40EA3401A43054B032424028F
:102EC0001B198408A4001A5110BD00001CED00E07D
:102ED00000E100E0FEB5054600270020019011E268
:102EE000684600890607360F002E7DD168460089A6
:102EF00010210840002830D128680088FB4908408C
:102F0000296808802C46283428684030008A2178B7
:102F1000C9004018801C0122920229688918405A71
:102F20008005800DA061A169206940182061002101
:102F30002846FDF7A6FD2420405D0028CFDD60690E
:102F40000028CCD12420405D8021084329684031ED
:102F50008881002124204155D4E12C46FF340934D6
:102F6000286801880191684680880121C9020840CB
:102F7000002823D028684030008A2178C9004018F2
:102F8000801D0122920229688918405A8005800D0F
:102F9000A061218B8BB2A2882146E431286800F021
:102FA000BCF9286800884004400CD04980310840B2
:102FB000296808802846FEF780FDA3E168468088DE
:102FC0000121C9030840002889D0286800884004EE
:102FD000400CC64980310840296808802868403084
:102FE000008A2178C90000E056E04018801D0122C7
:102FF000920229688918405A8005800DA061A06955
:1030000000280BD0218B8BB2A288216900912868FF
:1030100000F083F9A1692069401820610021284649
:10302000FDF73FFD28684030008A801D01239B0288
:103030002A68D2188118E2683E2A0FD9E268D202C3
:10304000100C227BD206D20E002A01D1421E90B271
:1030500082020123DB031A430A800CE0E268D203F8
:10306000100C227BD207D20F002A01D0421C90B252
:103070008206120C0A80296809889D4A1140084678
:10308000012109034840490048408900014380224A
:1030900011432A68118035E1B1002868415A019135
:1030A000684680880121C903084000287DD0B1000E
:1030B0002868405A4004400C8C4980310840B200D6
:1030C000296888521C2070432946FF310931441871
:1030D000A07A002816D128684030008A2178C900DB
:1030E0004018801D0122920229688918405A8705DC
:1030F000BF0D002F49D0A28821693B46286800F007
:103100000CF942E0217889002868405A012189039E
:103110000840002816D028684030008A2178C9006D
:103120004018801C0122920229688918405A87059C
:10313000BF0D002F1CD0E28821693B46286800F0B3
:10314000ECF815E028684030008A2178C900401862
:10315000801D0122920229688918405A8705BF0DF7
:10316000002F05D0228921693B46286800F0D5F858
:10317000217889002868405A5C49803108405D49BF
:1031800008432278920029688852A069C019A0617A
:103190002069C01920616069002802D0E068B84247
:1031A00004D921782846FDF77CFC05E021782846E3
:1031B00063692269FEF76CF86846808880210840C0
:1031C00000287DD01C207043294628314418B100C6
:1031D0002868405A45490840B20029688852A07AB8
:1031E00000281AD128684030008A2178C900401888
:1031F000801C0122920229688918405A8005800D9E
:10320000A061A069002853D0208B83B2A2882169D5
:103210002868009000F094F84AE021788900286836
:10322000405A4021084000281AD028684030008ABF
:103230002178C9004018801C01229202296889184F
:10324000405A8005800DA061A069002822D0208B03
:1032500083B2E28821692868009000F071F819E0D3
:1032600028684030008A2178C9004018801D01225A
:10327000920229688918405A8005800DA061A069D2
:10328000002807D0208B83B222892169286800900A
:1032900000F056F8217889002868405A1349803197
:1032A00008401349F1310843227892002968885276
:1032B00028684030008A2178C9004018801C00E04E
:1032C00020E00122920229688918405A8005800D69
:1032D000A061A169206940182061606900280BD1B4
:1032E00021782846FDF7CDFB0CE000000F8F000091
:1032F0008FBF0000C08000002178284663692269E2
:10330000FEF72AF928684030808802900121C9031D
:103310000840002800D0E3E5FEBDF8B55E1C76103D
:10332000009616180127BF02F519009C05E02E88AB
:103330000E80AD1C491C491C641E002CF7D1F8BD41
:10334000FFB581B0049E761C76100096039E361859
:103350000127BF02F419009A08E00B78491C0E7887
:1033600035021D432580A41C491C521E002AF4D19D
:1033700005B0F0BD10B5FDF709FBFFF749F910BD29
:1033800010B500F001F810BD30B599B020200C90B8
:1033900001201390022015900321C90316910021EA
:1033A0001791012118910CA8FEF7D4FD0720089071
:1033B0000220099000200A900B90012108A8FEF736
:1033C00063FC0120400401900020079001A8FEF753
:1033D0009FFBFEF731FD05467D21C900FCF788FE05
:1033E0000446FFF7F9F80420FFF7E2F8002211463F
:1033F000501EFDF71BFB19B030BD000019480068D6
:1034000001210843174908600846406816490840EA
:10341000144948600846006814490840114908608A
:10342000084600680121890488430E49086008465F
:1034300040683F21090488430A4948600846C06A39
:1034400000090001C8620846006B094908400549A7
:1034500008630846406B40084000486300208860CD
:1034600070470000001002400CB8FF08FFFFF6FE96
:103470002CFEFCFF10B500220268214B984206D0BA
:1034800001239B07984202D01E4B984205D170241D
:103490001346A3431A464B681A43194B984212D05D
:1034A00001239B0798420ED0164B98420BD0164B27
:1034B000984208D0154B984205D0154B984202D03F
:1034C000144B984206D1032424021346A3431A4600
:1034D000CB681A4302608B68C3620B688362084B37
:1034E000984208D0094B984205D0094B984202D027
:1034F000084B984201D10B6903630123436110BD5E
:10350000002C014000040040002000400040014029
:10351000004401400048014030B5002301248C40A4
:103520002346046A9C430462046A15468D402C437A
:10353000046230BD70B50C4600218168FF2636025A
:103540000D46B54329461D02154325432943816095
:1035500070BD10B50A460021816870240B46A34354
:103560001946072313431943816010BD70B5002429
:1035700000220023056A6D086D000562026A436837
:10358000846970262546B5432C46A408A4000D681E
:103590002C4302261546B5432A468D682A431C4D06
:1035A000A84200D10BE01B4DA84200D107E01A4D04
:1035B000A84200D103E0194DA8420AD100BF082655
:1035C0001546B5432A46CD682A4304261546B54319
:1035D0002A460F4DA84208D00E4DA84205D00E4DE8
:1035E000A84202D00D4DA8420CD1FF2601361D463F
:1035F000B5432B4676001D46B5432B464D692B43FC
:103600008D692B43436084614D684563026270BDE0
:10361000002C0140004001400044014000480140AE
:1036200070B5002400220023056A1026B543056208
:10363000026A43688469072636032546B5432C464B
:10364000032636022546B5432C460D682D022C4331
:1036500020261546B5432A468D682D012A431E4D66
:10366000A84200D10BE01D4DA84200D100BF1C4D67
:10367000A84200D100BF1B4DA8420BD10AE0802612
:103680001546B5432A46CD682D012A4340261546E6
:10369000B5432A46104DA84208D0104DA84205D087
:1036A0000F4DA84202D00F4DA8420ED10126B602FE
:1036B0001D46B5432B4676001D46B5432B464D6946
:1036C000AD002B438D69AD002B43436084614D6891
:1036D0008563026270BD0000002C01400040014083
:1036E000004401400048014070B50024002200233E
:1036F000056AFF260136B5430562026A4368C4695C
:1037000070262546B5432C46A408A4000D682C431A
:10371000012676021546B5432A468D682D022A43B6
:103720001E4DA84200D10BE01D4DA84200D100BFA4
:103730001C4DA84200D100BF1B4DA8420CD10BE08C
:103740000126F6021546B5432A46CD682D022A43C6
:1037500076101546B5432A46104DA84208D0104DA4
:10376000A84205D00F4DA84202D00F4DA8420ED15D
:10377000012636031D46B5432B4676001D46B5434C
:103780002B464D692D012B438D692D012B43436041
:10379000C4614D68C563026270BD0000002C014029
:1037A00000400140004401400048014070B5002243
:1037B00000230024056A01263603B5430562036A27
:1037C0004468C269072636031546B5432A460326D0
:1037D00036021546B5432A460D682D022A430126B6
:1037E00076031D46B5432B468D682D032B430D4DA7
:1037F000A84208D00C4DA84205D00C4DA84202D0DA
:103800000B4DA84207D10126B6032546B5432C46E9
:103810004D69AD012C434460C2614D68056403628B
:1038200070BD0000002C01400040014000440140F8
:103830000048014070B50B46144600210022026A80
:10384000056A6D086D0005628169F0260D46B54375
:103850002946250129430A261546B5432A46154619
:103860001D432A468161026270BD70B50B46144645
:1038700000210022056A1026B54305628169026AAB
:103880000F2636030D46B543294625032943A026B6
:103890001546B5432A461D012A438161026270BD67
:1038A00002460020014B18707047000016010020EE
:1038B00070B505460E464320C0004459012E44D140
:1038C0003720C0012018008958303721C9016118FC
:1038D00008813720C001201800893721C90188429A
:1038E00016D10020611808813720C0012018007906
:1038F00003280DD1872080004059012237218901FA
:103900008368201D984700203721C901611808717C
:103910003720C0012018407900280BD13720C00182
:103920002018008937218901884203D101204900EC
:10393000611848713720C00120180189201D0A181C
:1039400058230121284600F0D8FC002070BD70B536
:1039500004460D460121204600F0A6FB82212046A8
:1039600000F0A2FB4320C000005900280ED08720A1
:10397000800000594168002088474321C900085948
:1039800000F09BFF00214320C0000151002070BDCA
:1039900070B505464320C00044593720C0012018A7
:1039A000807A012817D10D482018403080780228ED
:1039B00011D10A4AA21850788722920052591169EF
:1039C000884700203721C901611888720021034807
:1039D000201840304170002070BD00008A1B00009C
:1039E000014600207047000001466520088001481C
:1039F00070470000A400002001460A20088001480A
:103A0000704700000C01002070B505460E464023AB
:103A100002220121284600F061FC4023022282217B
:103A2000284600F05BFC1B4800F048FF4321C9001A
:103A3000485108464059002801D1022070BD43205A
:103A4000C00044590020206003203721C9016118BB
:103A5000087100203721C901611808813721C90187
:103A60006118C8803721C90161184871872080001A
:103A7000405900224621036807489847002801D092
:103A80000220DBE75823221D0121284600F035FCE7
:103A90000020D3E7D01B000054560000024600204F
:103AA00070470246002070470246002902D0872056
:103AB00080008150002070470146002070470000C0
:103AC000FEB505460C46002000904320C000465934
:103AD000207860210840002819D020284AD1607839
:103AE000012806D0812809D121462846FCF79CFBF5
:103AF0000BE021462846FCF7ADFB06E021462846B0
:103B000000F087F80220009000BF00BF32E060782C
:103B1000062804D00A2814D00B2823D117E0608887
:103B2000001221280CD1154FE088092801DD092059
:103B300000E0E088019039462846019A00F098F8A4
:103B400017E001223146284600F092F811E0A078F3
:103B5000012802DCA078306003E02146284600F00E
:103B600058F806E02146284600F053F8022000905D
:103B700000BF00BF00BF0098FEBD0000B6000020DF
:103B800070B504460D4685208000005929464268DC
:103B900020469047002070BD70B504460D46FF20BA
:103BA000FD30005D022802D0032813D100E000BFE1
:103BB000688801280DD100218120800001518520D5
:103BC000800000592946826820469047204600F030
:103BD00061F804E02946204600F01BF800BF00BF52
:103BE00070BD70B506460C4615462B462246002190
:103BF000304600F082FB002070BD70B506460C46D2
:103C000015462B4622460021304600F038FC0020A5
:103C100070BD70B504460D468021204600F010FCB2
:103C20000021204600F00CFC70BD70B504460E4625
:103C300015460321FF20F5300151FF2009300551C1
:103C4000001D05512B4632460021204600F055FB51
:103C5000002070BD10B504460521FF20F53001514C
:103C600000231A461946204600F047FB002010BDED
:103C700070B504460E4615460221FF20F53001516D
:103C8000A561E5612B4632460021204600F0F7FB96
:103C9000002070BD10B504460421FF20F53001510D
:103CA00000231A461946204600F0E9FB002010BD0B
:103CB00070B505460C46002D05D12246054906A0E3
:103CC00000F0A0F904E02246024903A000F09AF9AE
:103CD000004870BDB40400204D49444920436F6E34
:103CE000666967000246122008800148704700009C
:103CF0005000002070B505460C46002D05D1224627
:103D0000054906A000F07EF904E02246024903A01E
:103D100000F078F9004870BDB40400204D494449D2
:103D200020496E7465726661636500000246042076
:103D300008800148704700006400002070B5054607
:103D40000C462246024903A000F05CF9004870BD11
:103D5000B4040020456C6D6F742028687474703A48
:103D60002F2F656C6D6F742E78797A2C206D6540DD
:103D7000656C6D6F742E78797A29000070B50546F0
:103D80000C46002D05D12246054906A000F03AF95F
:103D900004E02246024903A000F034F9004870BD57
:103DA000B4040020456C6D6F7420546865726D65B5
:103DB0006E566F780000000070B505460C46002D69
:103DC00005D12246054906A000F01CF904E0224670
:103DD000024903A000F016F9004870BDB4040020A9
:103DE000302E310070B504460D46E888012804D015
:103DF00029462046FFF70DFF1CE0FF20FD30005D47
:103E0000022802D003280FD108E00020A060012280
:103E1000214608312046FFF72BFF0AE00122211D31
:103E20002046FFF725FF04E029462046FFF7F1FE74
:103E300000BF00BF70BDF8B504460E467088001282
:103E4000030001F0F3FB0891050E2591916F7F911E
:103E5000207C2121090109590A68694690470546D5
:103E600087E0207C002809D1852080000059816AE4
:103E70006846884705460221697008E08520800071
:103E80000059C16A6846884705460221697070E09A
:103E9000B078030001F0CAFB06040D161F28313A62
:103EA000207C2121090109594A6869469047054645
:103EB00036E0207C2121090109598A68694690472A
:103EC00005462DE0207C212109010959CA6869466F
:103ED0009047054624E0207C2121090109590A69FF
:103EE0006946904705461BE0207C212109010959BC
:103EF0004A6969469047054612E0207C2121090164
:103F000009598A6969469047054609E0B1788520D4
:103F1000800000596A46836B20469847054600BFDB
:103F200000BF26E0207C002807D1852080000059B2
:103F3000416B6846884705461BE031462046FFF73F
:103F400068FEF8BD207C002809D18520800000593A
:103F5000016B6846884705460721697009E03146CC
:103F60002046FFF756FEECE731462046FFF751FEAC
:103F7000E7E700BF68460088002812D0F0880028D4
:103F80000FD0F08869460988884202DD68460088BB
:103F900000E0F088009069460A8829462046FFF72D
:103FA00067FE00BFCDE70146002002E0421CD0B210
:103FB000491C0A78002AF9D1704770B504460D46AD
:103FC000FF20FD30005D022802D0032813D100E05D
:103FD00000BF0120E060812080000059002803D04C
:103FE0000221E0680843E060022221460C312046AD
:103FF000FFF73EFE04E029462046FFF70AFE00BF19
:1040000000BF70BDF8B504460D4617460026002CCB
:104010001ED02046FFF7C7FF4000801C38803A784A
:104020003046711CCEB22A5403223046711CCEB2E7
:104030002A540AE022783046711CCEB22A54641CFD
:1040400000223046711CCEB22A5420780028F1D1CB
:10405000F8BD70B504460D461646002C01D102206D
:1040600070BD852080000059002803D000218520E4
:1040700080000151002D02D02120000105510121B5
:10408000FF20FD3001552670204600F0DBF80020AF
:10409000E6E770B504460D46112149010859294645
:1040A000FCF750FE002070BD70B504460D4611218E
:1040B000490108592946FCF705FD002070BDF8B5F7
:1040C00004460E461746002E5CD125461435FF20C7
:1040D000F5300059022848D1E968A868884210D90B
:1040E000E968A868401AA860288982B23946204643
:1040F000FFF783FD00231A461946204600F0FDF81D
:1041000033E0E9686868FBF7F3FF002919D1E96833
:104110006868884215D3FF20F930005969688142E8
:104120000FD2002211462046FFF767FD0021FF2035
:10413000F930015100231A461946204600F0DDF8F7
:1041400013E0852080000059C06800280AD0FF20B5
:10415000FD30005D032805D1852080000059C1682D
:10416000204688472046FFF775FD01204002005D8C
:10417000012819D1204600F0AFF9002101204002AA
:10418000015511E0852080000059406900280BD0BE
:10419000FF20FD30005D032806D1852080000059F6
:1041A00031464269204690470020F8BDF8B50546E3
:1041B0000E461746002E30D1EC1DFD34FF20F530A1
:1041C000405903283BD1E168A068884210D9E168D2
:1041D000A068401AA060E168A068884201D2A06887
:1041E00000E0E06882B239462846FFF7FAFC26E094
:1041F000852080004059006900280AD0FF20FD304A
:10420000405D032805D1852080004059016928467A
:1042100088472846FFF73EFD11E085208000405981
:10422000806900280BD0FF20FD30405D032806D1B7
:1042300085208000405931468269284690470020F9
:10424000F8BD000010B504461348C461134911209D
:1042500040010151124808600520486002210F48C2
:1042600081600321C1600221016100218161C1617E
:10427000FDF734FB1121490108591823002211468A
:10428000FCF7DDFB11214901085958230022802148
:10429000FCF7D5FB002010BD1807002018050020F2
:1042A000005C004010B50246112040018358802078
:1042B0000840802808D14806400E1C2460431C4654
:1042C00028340019807810BD4806400E1C24604335
:1042D0001C46FF34093400198078F4E7F8B5044629
:1042E0000F4615461E461121490108592B463246F4
:1042F0003946FCF7B7FD0020F8BDF8B504460D4679
:1043000016461F461121490108593B4632462946A7
:10431000FCF7BEFF0020F8BD10B504464023002284
:1043200011462046FFF7DAFF4021FF2011300151EE
:104330004023002280212046FFF7D0FF4021216248
:104340000121FF20FD3001554320C0000059002805
:1043500006D0217985208000005942682046904788
:10436000002010BD0146FF20FE30425C401E42543A
:104370000020704710B50446FF20FD30005D032883
:104380000BD1852080000059C069002805D0852008
:1043900080000059C16920468847002010BD0246B0
:1043A00011740020704770B504460D461121490173
:1043B00008592946FDF762FB002070BD70B5044620
:1043C0000D4629464120C000201800F067F8012161
:1043D000FF20F53001514120C0002018C188FF2086
:1043E000F93001514120C000005DC006C00E002818
:1043F00004D0012809D0022815D10DE04120C000C9
:104400002118204600F042F917E04120C000211891
:10441000204600F029FA10E04120C0002118204673
:1044200000F06DF909E04120C000005D80221040DD
:104430000146204600F004F800BF00BF002070BD18
:1044400070B504460D461121490108592946FDF76A
:104450000BF8002070BD10B5044611214901085920
:10446000FDF736FB002010BD0146FF20FD30425C09
:10447000401C42540422401E425400207047F8B5AC
:1044800004460D4616461F461121490108593B4670
:1044900032462946FDF760F80020F8BD0A78027020
:1044A0004A7842708B78CA7812029A1842800B7947
:1044B0004A7912029A1882808B79CA7912029A1864
:1044C000C280704702460020002903D085239B004C
:1044D000995000E00220704701460020704770B5F7
:1044E00004460D46A888002825D1E888002822D156
:1044F000A8784606760EFF20FD30005D032804D123
:1045000029462046FFF785FB19E0FF20FF300655BE
:1045100031462046FFF747FF2046FFF7BBFB002E42
:1045200004D00221FF20FD30015508E00121FF20C9
:10453000FD30015503E029462046FFF76AFB70BDB8
:1045400070B504460D4602268520800000590028DB
:1045500009D08520800000592946026820469047EE
:10456000002800D10026304670BD000070B504461A
:104570000D46A8783649087008460078012804DD01
:1045800029462046FFF745FB60E0FF20FD30005D37
:10459000022802D0032853D11EE02D4800780028BD
:1045A00016D02B48007860600321FF20FD300155B4
:1045B000274801782046FFF7C3FF022804D1294687
:1045C0002046FFF726FB70BD2046FFF763FB02E0A5
:1045D0002046FFF75FFB38E01D48007800280FD128
:1045E0000221FF20FD30015519480078606018480D
:1045F00001782046FFF7C4FA2046FFF74BFB1EE088
:10460000134909786068884216D021792046FFF75F
:10461000B7FA0F48007860600D4801782046FFF730
:104620008FFF022804D129462046FFF7F2FACAE795
:104630002046FFF72FFB02E02046FFF72BFB04E0AC
:1046400029462046FFF7E5FA00BF00BF00BFBAE7E2
:10465000CC01002070B504460D46688801280DD1B4
:1046600001218120800001518520800000592946C8
:104670008268204690472046FFF70CFB70BD10B5BE
:1046800004462046FFF7E7FE002010BD70B5054642
:104690000C4600266078030000F0C8FF0A1A24299F
:1046A0001F290B062915102921462846FFF7C3FBB1
:1046B00022E021462846FFF712FF1DE0214628464A
:1046C000FFF754FF18E021462846FFF78BFB13E065
:1046D00021462846FFF771FC0EE021462846FFF7E9
:1046E000B9FF09E021462846FFF756FA04E02146C3
:1046F0002846FFF78EFA00BF00BF304670BDF8B500
:1047000005460E460020009034793078602108403C
:10471000202808D1852080004059314682682846EB
:1047200090470020F8BD707800285FD001282FD076
:10473000032876D1FF20FD30405D022802D00328F7
:104740001FD108E0002C05D0802C03D0214628463C
:10475000FFF776FE1AE07088002807D1002C05D0FC
:10476000802C03D021462846FFF76AFE8520800072
:10477000405931468268284690472846FFF78AFA12
:1047800004E031462846FFF744FA00BF00BF68E066
:10479000FF20FD30405D022802D003281FD108E031
:1047A000002C05D0802C03D021462846FFF748FE78
:1047B0001AE07088002811D16006400E00280AD047
:1047C00021462846FFF765FC852080004059314688
:1047D0008268284690472846FFF75CFA04E0314695
:1047E0002846FFF716FA00BF00BF3AE0FF20FD3071
:1047F000405D022802D003282BD108E06006400E5D
:10480000002803D021462846FFF71AFE26E0802024
:104810002040802806D16006410D28461430081833
:1048200005E01DE06006410DE81DFD300818074653
:1048300021462846FFF736FD002802D001203860C7
:1048400001E000203860022239462846FFF710FABE
:1048500004E031462846FFF7DCF900BF00BF00E066
:1048600000BF00BF00985DE770B504460D46002606
:10487000FF20FD30005D032817D1287901280FDCC7
:104880008520800000592946826820469047E888A4
:10489000002809D1002E07D12046FFF7FBF903E0DD
:1048A00029462046FFF7B5F904E029462046FFF7E0
:1048B000B0F900BF00BF002070BD7047014601483D
:1048C000704700003807002010B50248FCF756FF7B
:1048D00010BD00001805002070B506460C46072CD8
:1048E00006DC22461521304600F09FFC054601E01B
:1048F0000125ED43284670BD70B506460C460648B6
:104900000472002C04D0304600F0F4FC054600E0B0
:104910000025284670BD0000C001002070B5044687
:104920000D4600222946204600F0BEFA06463046D3
:1049300070BD0000F8B504460D46164607483346DC
:104940002A46214600900648FBF786FE0746002FC0
:1049500000D1F8BD0020C043FBE70000204E00005E
:10496000D0010020F8B504460D46164607483346E8
:104970002A46214600900648FBF730FF0746002FE5
:1049800000D1F8BD0020C043FBE70000204E00002E
:10499000D0010020F0B585B0074655203349088185
:1049A0006420488101200873012130486030017281
:1049B000384600F03BFD00BF03AA2421384600F032
:1049C000FEF90446002C02D000BF00BF49E0684653
:1049D0000C21415625486030417201AA26213846F3
:1049E00000F00AFA0446002C02D000BF00BF38E0F5
:1049F0000198000C0004002801D11D4801901B49BA
:104A0000019808606A461E21384600F01BFA0446E9
:104A1000002C02D000BF00BF23E0684600887D2143
:104A2000C9004843C60911484660384600F062FC98
:104A30000546002D02DA00BF00BF12E002AA1621CF
:104A4000384600F0BCF90446002C02D000BF00BF7D
:104A500007E06846007A012801D1002D00D001242A
:104A600000BF00BF204605B0F0BD0000600100207F
:104A7000F803CE00704770B5054600BF284600F029
:104A800063FA0446002C00DA1BE00421284600F0FB
:104A90001BF80446002C00D013E0C8220A21284647
:104AA00000F066F90446002C02D000BF00BF08E009
:104AB000284600F009FE07212846FFF70DFF0446AF
:104AC00000BF00BF204670BD70B506460C46042CE2
:104AD00007DC2346F8221421304600F053FA05463D
:104AE00003E000BF00BF0125ED43284670BDF8B5C7
:104AF00005460C466A464F21284600F060F90646F6
:104B000068460078C721084020703046F8BD000094
:104B10007CB506460C462146304600F04BF805466B
:104B2000002D40D101AA6621304600F08BF90546E0
:104B3000002D36D16846808860606A464D21304637
:104B400000F03DF90546002D04D1684600780011BB
:104B5000A06001E000BF00BF2146304600F0E2FC4B
:104B60000546002D00D021E01148007B00280ED022
:104B70002146304600F077FD0546002D07D1218CF7
:104B80002068884203D01020A060208C2060084854
:104B90006030007A002808D02146304600F082FBC1
:104BA00003E000BF01E000BF00BF00BF28467CBD9E
:104BB00060010020F8B507460C466A466221384677
:104BC00000F0FDF80546002D04D103266846007864
:104BD000704320602846F8BDF8B506460F4601210F
:104BE0003046FFF779FE0446002C02D000BF00BF1C
:104BF0003BE00121304600F0CFF80446002C02D003
:104C000000BF00BF31E01AE069463046FFF76FFF92
:104C10000446002C00D013E000980006800F002806
:104C200004D000BF00BF0324E44309E0009840071C
:104C3000400F042800D103E03046FFF71BFFE3E7F5
:104C400000BF002C04D139463046FFF761FF04460F
:104C500001213046FFF740FE0546002D04D000BF7D
:104C600000BF002C00D12C4600BF2046F8BD00003C
:104C7000F1B588B07D20C000079040100690244810
:104C80000089059022484089049000BF02AA1C2197
:104C9000089800F094F80446002C02D000BF00BF32
:104CA00032E06846007A0190089800F0FFFB054664
:104CB000002D02DA0024E44326E07D21C90001989A
:104CC0004843461B03AAB821089800F095F804460B
:104CD000002C02D000BF00BF16E003980002039032
:104CE000049A72431146FF23F533059A5A43039BF6
:104CF0005A431046FBF7FCF90746BAB2222108983E
:104D000000F0BDFA044600BF00BF204609B0F0BD68
:104D100060010020F8B507460D46002D01D00124A2
:104D200000E000242346FE222D21384600F02AF917
:104D300006463046F8BD70B506460D46002400BF55
:104D40002A461C21304600F070FA0446002C00D0A0
:104D50000BE03046FFF78CFF0446002C00D004E047
:104D6000304600F0C7FA044600BF00BF204670BDC1
:104D7000F8B506460C4617463A461921304600F06B
:104D800054FA0546002D05D122461A21304600F07E
:104D90004CFA05462846F8BD70B506460D46032D6B
:104DA00009DC2A461821304600F03FFA0446002C60
:104DB00003D000BF01E00124E443204670BDF7B5F5
:104DC00082B00D4617466C4628122070657002228C
:104DD00021460298FFF7C6FD0646002E09D10122A2
:104DE00021460298FFF7A6FD0646002E01D1207845
:104DF0003870304605B0F0BDF7B582B00D461746A5
:104E00006C46281220706570022221460298FFF736
:104E1000A9FD0646002E12D1042221460298FFF772
:104E200089FD0646002E0AD1207800066178090423
:104E30000843A17809020843E17808433860304606
:104E400005B0F0BDF7B582B00D4617466C46281286
:104E500020706570022221460298FFF783FD064606
:104E6000002E0CD1022221460298FFF763FD064670
:104E7000002E04D120780002617808433880304643
:104E800005B0F0BD70B505460C46522D05D1224641
:104E900004218006FBF738FB05E0224602210920A9
:104EA000C006FBF731FB70BDF7B50C461546002C6C
:104EB00001D0012C15D1082D01D0002D11D1002CCD
:104EC00001D1102700E011276806030EE1223946C0
:104ED000009800F057F80646002E01D000BF00BF32
:104EE00003E000BF00BF0126F6433046FEBD0000D0
:104EF000F8B507460C462646E00F8019C005020E9D
:104F00000549384600F091F90546002D01D000BF53
:104F100000BF2846F8BD0000120200000246002033
:104F20000121890700E089089142FCD809E0431873
:104F3000934204D84318D21A4308581800E0400896
:104F400089080029F3D1704770B506460025304620
:104F500000F034F90446002C02DA00BF00BF0FE075
:104F6000002C01DD00BF00BF00BF00BF002D01DA33
:104F700000BF00BF002D02D1002C00D0254600BF8D
:104F8000284670BDFFB583B00D46174601AC281208
:104F900020706570022221460398FFF7E3FC064665
:104FA000002E12D10122A11C0398FFF7C3FC064674
:104FB000002E0AD1A078384006990843A070032239
:104FC00021460398FFF7CEFC0646304607B0F0BDF9
:104FD00010B5044601226549204600F026F9012259
:104FE0004121C900204600F020F9002296212046E8
:104FF00000F01BF954229721204600F016F90022F8
:10500000E321204600F011F90422E421204600F0BB
:105010000CF90222E521204600F007F90122E621E1
:10502000204600F002F90322E721204600F0FDF8B7
:105030000222F521204600F0F8F80522D921204669
:1050400000F0F3F8204600F0E1FA00229F2120460C
:1050500000F0EBF82822A321204600F0E6F8002219
:10506000B721204600F0E1F82822BB21204600F0BD
:10507000DCF80922B221204600F0D7F80922CA2123
:10508000204600F0D2F80122FF219931204600F09D
:10509000CCF81722FF21B131204600F0C6F80022DB
:1050A000FF21AE31204600F0C0F80522FF21204646
:1050B00000F0BBF80522FF210131204600F0B5F8D1
:1050C0000522FF219A31204600F0AFF81B22FF2174
:1050D000A731204600F0A9F83E22FF21AD3120463D
:1050E00000F0A3F81F22FF21A831204600F09DF810
:1050F00000223021204600F098F81022112120468D
:1051000000F093F83022FF210B31204600F08DF89B
:1051100046223F21204600F088F8FF223121204618
:1051200000F083F863224021204600F07EF801223F
:105130002E21204600F079F8FF222C21204600F095
:1051400074F809221B21204600F06FF831223E211D
:10515000204600F06AF824221421204600F065F869
:105160003F212046FFF7E7FD002010BD07020000A9
:10517000F3B581B00C46032C18DB17DC601E400031
:105180000C490E5A32469621019800F078F80546EF
:105190000949092008562146FAF7C0FF47B2FAB27A
:1051A0002421019800F041F8054601E00125ED4376
:1051B0002846FEBD0C600008C001002070B5054601
:1051C00000BF2846FFF704FF0446002C02D000BFB2
:1051D00000BF0AE000212846FFF79CFD0446002C92
:1051E00002D000BF00BF00E000BF00BF002C09D10B
:1051F00003212846FFF7BCFF04460022162128465B
:1052000000F013F8204670BD38B5054600BF6A4669
:1052100016212846FFF7D3FD04466846007801288A
:1052200001D0002CF3D0204638BDFEB507460D4610
:1052300016466C46281220706570A670032221461F
:105240003846FFF78FFB02900298FEBDFEB5074679
:105250000E46154601AC301220706670280EA07004
:105260002802000EE0702804000E207165710622ED
:1052700021463846FFF776FB00900098FEBDFEB54C
:1052800007460D4616466C4628122070657030128F
:10529000A070E670042221463846FFF763FB0290B7
:1052A0000298FEBDF3B581B00D46EF680E48874207
:1052B00015D23946019800F0BFF80446032000904B
:1052C0000098401E400009490E5A09488189A142B0
:1052D00000DA8489B44200DD3446EC6101E000204C
:1052E000E8610020FEBD0000100905001260000802
:1052F000B8010020F1B58AB00020099000BF08AACB
:105300002A210A98FFF75BFD0446002C02D000BF5B
:1053100000BF82E008A80078002803D1012009908E
:105320002820089008A800787D21C9004843C009BA
:10533000059002AA2D210A98FFF741FD0446002C92
:1053400002D000BF00BF68E003AA1C210A98FFF743
:1053500036FD0446002C02D000BF00BF5DE004AA69
:10536000B8210A98FFF748FD0446002C02D000BF80
:1053700000BF52E001AA2C210A98FFF720FD044645
:10538000002C02D000BF00BF47E0684601797D20B5
:10539000C001FAF7C3FE2449086608464568059827
:1053A000A84204D30598411B1F48C16502E00021B3
:1053B0001D48C1656846007A02210840002811D0C6
:1053C00007AA26210A98FFF73DFD0446002C02D0CB
:1053D00000BF00BF21E06846808B7D21C9004843A3
:1053E000C60900E00026049908026946097B091FE6
:1053F000FAF77EFE0746711BB94200D3771B684659
:10540000007978430009069006990A9800F014F88C
:1054100081B205485830818100BF00BF002C00D107
:10542000099C20460BB0F0BD600100205021014ACC
:105430009165704760010020FEB50E461848806DEA
:1054400000901748076EC06D0190002E24DD314694
:105450001448FAF763FE0446FF3CE53C002C01DCEF
:1054600000251AE001204003844208DA009AB918A6
:10547000019A62431046FAF73BFE044607E00098A3
:1054800039182046FAF734FE01994843044620466D
:10549000FFF744FD054600E0034D2846FEBD000031
:1054A0006001002000688909FFFFFF7FF1B586B029
:1054B0001820059046200490C820039007200290F1
:1054C00001AAFF210A310698FFF779FC00900098A5
:1054D000002805D000BF00BF0020C04307B0F0BDCA
:1054E0006846047902990C4001AAFF210B31069805
:1054F000FFF765FC00900098002804D000BF00BFB3
:105500000020C043EAE768460579049905984118E8
:105510000A2068430E18601C7043039947183846E8
:10552000DCE70000F3B587B00D46002006900027A9
:1055300000260590049003903248029006200190C6
:105540000020009000BF05AA6C210798FFF754FCCB
:105550000446002C02D000BF00BF4EE0059902981F
:10556000814201D90020059004AA74210798FFF711
:1055700043FC0446002C02D000BF00BF3DE006AA59
:105580007C210798FFF738FC0446002C02D000BFAE
:1055900000BF32E003AA80210798FFF72DFC0446E4
:1055A000002C02D000BF00BF27E006986861039876
:1055B000A8610398009003990698884201D906983B
:1055C00000900098002801D10F4800907D22D20061
:1055D0000599514308460099FAF78AFD0746019A52
:1055E000049951437D22D200514308460099FAF7AD
:1055F0007FFD06462F61EE6000BF00BF204609B068
:10560000F0BD0000FFFFFF7F18F6000070B50446F4
:105610000026054806683246DA212046FFF716FEC6
:105620000546284670BD00006001002030B4744675
:10563000641E2578641CAB4204D3635D5B00E318F1
:1056400030BC18471D46F8E702E008C8121F08C121
:10565000002AFAD170477047002001E001C1121FF3
:10566000002AFBD17047F3B585B00C460026032015
:10567000049000BF03AA64210598FFF7A0FB07462A
:10568000002F02D000BF00BF19E06846067B2089CA
:1056900080B2E1680091019070003218208881B2D8
:1056A0002369059800F032F80546002D02DA00273C
:1056B000FF4304E0258470003018608400BF00BF01
:1056C000384607B0F0BD000010B5024600200E4B72
:1056D000186100230C4850308370C370037143710C
:1056E0008371038000210AE00023DB434C0006485D
:1056F0001430035300238C0014300351491C0A2931
:10570000F2DB002010BD000060010020FFB5A3B057
:105710001D4600BF002021901D901C901B901A90E8
:10572000199018901790169015901490139012904D
:1057300011901090FF202D300390FE4E2D980C28D4
:1057400004D00D2807D00F280FD109E0B0B2249063
:1057500000201D9012E0B0B2249001201D900DE0B9
:10576000B0B2249001201D9008E02598B04202D3E9
:1057700000201D9001E001201D9000BF00BF249873
:105780002290ED4840680490EB48C16D04980818D9
:105790000B9019214901049840180A90B4220B99E2
:1057A00051430846FF213931FAF7A2FC014604981B
:1057B00008180990DF4A55320B9951430846FF21DA
:1057C0003931FAF795FC0146049808180890AF2281
:1057D000D2000B9951430846FF213931FAF788FC72
:1057E000014604980818079025983C2806DA0A987C
:1057F000854203D2B0B22290012021902598A5289D
:1058000006DA0998854203D2B0B222900120219095
:10581000CA492C98884202D90120199021904B2D19
:1058200002D2012019902190C348806A002819D023
:10583000C148806AA8420AD2BF4A916A926AAA1AEB
:1058400064235A431046FAF753FC18900CE0BA4A06
:10585000916A926A521B64235A431046FAF748FC35
:10586000189001E0002018901898322801D90120E2
:1058700019901998012813D10020AF49086100241C
:105880000BE00021C9436200AB4814308152002173
:10589000A20014308150601C84B20A2CF1DB13E0AA
:1058A00009240FE0601E4100A3481430415A6200F1
:1058B0008152601E8100A04828304158A2008150CA
:1058C000601E84B2002CEDDC1D98012803D19A499A
:1058D0002498888203E00021C94397488182964832
:1058E0008562FF215F312598884202DA0898854257
:1058F00009D3FF215F312598884202DB0798854252
:1059000001D30120219006AAFF21AD312398FFF792
:1059100056FA0746002F02D000BF00BFE9E16846F3
:10592000007E209006AAFF210D312398FFF747FA49
:105930000746002F02D000BF00BFDAE16846007EB4
:105940001F9006AAFF2111312398FFF738FA074666
:10595000002F02D000BF00BFCBE16846007E1E9042
:1059600020983E280AD11F98C1B2734850308170E8
:105970001E98C1B270485030C17009E01F98C1B282
:105980006D48503001711E98C1B26B485030417162
:105990002198012833D120983E2816D03E22FF219D
:1059A000AD312398FFF741FC0746002F02D000BF1E
:1059B00000BF9EE10122F2212398FFF736FC074643
:1059C000002F02D000BF00BF93E11F98C1B25A4818
:1059D000503081701E98C1B257485030C1701F9826
:1059E000C1B25548503001711E98C1B25248503072
:1059F0004171002050490861229827B0F0BD4E48FF
:105A0000007CC007C00F002804D13C200690052070
:105A1000059003E03E200690012005906846027E36
:105A2000FF21AD312398FFF700FC0746002F02D07D
:105A300000BF00BF5DE1F221059A2398FFF7F5FB57
:105A40000746002F02D000BF00BF52E13A4800696C
:105A5000401C3949086108465030C178407981427C
:105A600006DD35485030C1784079081A0F9001E0C2
:105A700000200F900F98C1B22F485030817181786B
:105A80000079814206DD2C48503081780079081A6F
:105A90000E9005E02848503001798078081A0E9061
:105AA000E121C9000E98884203D90E98401A0D9042
:105AB00001E000200D90E121C9000E9840180C90E3
:105AC0000D990F98884203D30C990F98884202D9F8
:105AD00001201C90C1E0052019491E23FF222D3210
